:020000022000DC
:1070000000000420757302005D7302005F730200CC
:1070100061730200637302006573020000000000E8
:107020000000000000000000000000006773020084
:1070300069730200000000006B7302006D730200B0
:10704000A5F302006F730200FD0003006F730200DE
:107050006F7302006F73020015FE02006F7302006F
:107060006F7302006F7302006F7302006F73020090
:107070006F7302006F7302006F7302006F73020080
:107080006F730200B5A402006F7302006F730200F9
:107090006F7302006F730200C50404006F73020077
:1070A0006F7302006F7302006F7302006F73020050
:1070B0006F7302006F730200000000000000000008
:1070C0006F7302006F7302006F7302006F73020030
:1070D0006F7302006F7302006F7302006F73020020
:1070E0006F7302006F7302006F73020000000000F4
:1070F000000000006F73020000000000F92403008C
:10710000000000000000000000000000000000007F
:10711000000000000000000000000000000000006F
:10712000000000000000000000000000000000005F
:10713000000000000000000000000000000000004F
:10714000000000000000000000000000000000003F
:10715000000000000000000000000000000000002F
:10716000000000000000000000000000000000001F
:10717000000000000000000000000000000000000F
:1071800000000000000000000000000000000000FF
:1071900000000000000000000000000000000000EF
:1071A00000000000000000000000000000000000DF
:1071B00000000000000000000000000000000000CF
:1071C00000000000000000000000000000000000BF
:1071D00000000000000000000000000000000000AF
:1071E000000000000000000000000000000000009F
:1071F000000000000000000000000000000000008F
:10720000354936480A1A02D0072291438D4634493F
:1072100034480A1A06D00722914381F309880222D2
:1072200082F3148830483149314A00F044F831483B
:107230003149324A00F03FF831483249324A00F0D1
:107240003AF832483249334A00F035F83248334987
:10725000334A00F030F833483349344A00F02BF811
:1072600033483449344A00F026F83448344900227F
:1072700000F02CF833483449002200F027F8334856
:107280003349091A082902DB002202604160314AB1
:1072900090471F481F49884205D00268043003B454
:1072A000904703BCF7E700208646EC46002000210B
:1072B000294A9047FEE7884207D0521A05D0037842
:1072C00001300B700131013AF9D17047884202D088
:1072D00002700130FAE770470000042000E003204C
:1072E000000004200000042000500400742200204C
:1072F00088250020D0730200D0730200140D040012
:10730000005004007422002074220020AC0E0400FF
:10731000AC0E0400AC0E0400AC0E0400AC0E040075
:10732000AC0E0400AC0E0400AC0E0400FE4F0400D2
:10733000145304008825002088250020882500207B
:10734000D83A0020D83A0020D83A0020D83A002075
:10735000D85A00209D73020011430300FEE7FEE7A8
:10736000FEE7FEE7FEE7FEE7FEE7FEE7FEE7FEE7F5
:1073700000F002B8FFF7FCBF0F484FF00701884349
:1073800085460E4880470E48016841F4700101604F
:10739000BFF34F8FBFF36F8FFFF732BF09480A4922
:1073A0000A4A884207D0521A05D0037801300B7080
:1073B0000131013AF9D17047000004203DE4020098
:1073C00088ED00E0980E0400602200207422002066
:1073D00000B5A1B00590049103920293049806F0C1
:1073E00013FD039B1593029B169300231793002311
:1073F0008DF8603000231993229B1A9300231F936A
:107400000FA91F9B0C22049806F0D8FD0C231F9394
:10741000119B1293BDF84030ADF84C30BDF84230AE
:10742000ADF84E3000238DF851309DF83C3003F01C
:107430000303DBB2012B26D10F9BC3F395231C93CF
:107440009DF83C30C3F3C203DBB28DF85030BDF879
:107450003C30C3F38313DBB21B931B9B9A0009A937
:107460001F9B049806F0AAFD1B9B9B001F9A1344C8
:107470001F9312AA09A915AB009313461B9A1C98D7
:1074800001F04AF92FE09DF83C3003F00303DBB232
:10749000022B28D1BDF83E30C3F389139BB21E9353
:1074A0009DF83C30C3F3C203DBB28DF850301E9B15
:1074B000082B28BF08231D9307A91F9B1D9A04981A
:1074C00006F07CFD1F9A1D9B13441F931E9A1D9B63
:1074D000D31A1E9315AB12AA07A81D9901F0BEF985
:1074E0001E9B002BE3D1049806F09DFC00BF21B049
:1074F0005DF804FB00B583B00190019B1B781A4630
:107500000C4B9B5C002B05D0019B043318460AF002
:1075100079F80BE0019B1B781A46064B9B5C002B0D
:1075200004D1019B0C33184609F022FA00BF03B0C6
:107530005DF804FB202F002000B587B00390029176
:1075400013468DF8073000230593039B1B781A46DA
:10755000114B9B5C002B09D0039B04339DF8072043
:10756000029918460AF0A4F805900FE0039B1B78D7
:107570001A46094B9B5C002B08D1039B0C339DF8EA
:1075800007200299184609F06BFA0590059B1846EA
:1075900007B05DF804FB00BF202F002082B00190EF
:1075A0000091034B01221A7000BF02B0704700BF68
:1075B0000826002030B58DB003468DF807301A4BF1
:1075C00002AC1D460FCD0FC495E80F0084E80F00F4
:1075D000022302934FF0FF3303934FF0FF330493E2
:1075E0004FF0FF3305934FF0EB7308939DF807308E
:1075F000002B01D00D4A00E0002202AB19460C48D6
:1076000007F0E8FC0B900B9B0A930A9B002B04D01D
:10761000084A43210A9801F0E7FC074A9DF8073021
:10762000137000BF0DB030BD0C0F04009D7502003B
:1076300074220020AC0E04000926002000B583B09F
:1076400000238DF807309DF807301846FFF7B2FF8A
:1076500000BF03B05DF804FB00B589B00390029150
:107660000192019B8DF81F30124B00221A709DF879
:107670001F301A4602991048FFF75EFF0690069BDE
:107680000593059B002B04D00C4A5321059801F06B
:10769000ABFC00BF0A4B1B78002B07D0054B1B78B7
:1076A000DBB283F00103DBB2002BF3D100BF09B0E2
:1076B0005DF804FB0826002074220020AC0E0400B4
:1076C0000926002000B585B003900291054B009378
:1076D0008023054A02990398FFF77AFE00BF05B0A0
:1076E0005DF804FB597602008825002082B00190E5
:1076F00000BF02B07047000000B583B0019005489C
:10770000FFF7F8FE0020FFF755FF00BF03B05DF85C
:1077100004FB00BF7422002082B00190019BDB6853
:1077200001225A7100BF02B07047000000B583B05B
:107730004FF0FF330193FFF781FF0421084800F069
:107740009DFE0190019B002B03DA064948200BF0B7
:1077500099FC0348FFF7E0FF00BF03B05DF804FBAE
:10776000880E04004C0F040000B583B00190009116
:10777000019B1B681B6800990198984700BF03B0E4
:107780005DF804FB00B583B00190019B1B685B684A
:107790000198984700BF03B05DF804FB00B583B0C3
:1077A0000190019B1B689B680198984700BF03B03C
:1077B0005DF804FB82B001900B468DF80330019B0D
:1077C000DB689DF803201A7100BF02B0704782B0D9
:1077D0000190019BDB681B79184602B0704782B0AC
:1077E0000190019BDB6801225A7100BF02B0704713
:1077F00082B00190019BDB685B79184602B070474C
:1078000000B585B001900091019B002B01D10723A9
:107810002DE0194BFF229A60174B00221A60164B7D
:1078200000225A60144B0022C3F81824124B002285
:10783000C3F81424104B012283F82024009801F08F
:1078400085F80D4A019BC2F80C340C4806F040FA4A
:107850000390039B002B01D0039B08E0084806F02F
:10786000F9FB084A084BD31ADB0802930023184699
:1078700005B05DF804FB00BF742700209C0D0400D8
:10788000B00F0400880E0400B00D0400024A034B40
:10789000D31ADB0818467047880E0400B00D0400A8
:1078A00000B587B001900B468DF803309DF803308A
:1078B000002B1FD0FFF7EAFF04900023059313E08D
:1078C000059B9B000E4A13440393039B1B881A4697
:1078D000019B1B689A4204D1019B059A1A60002300
:1078E00009E0059B01330593059A049B9A42E7D36F
:1078F000052300E00023184607B05DF804FB00BF35
:107900007422002000B585B001900B468DF803303D
:107910009DF8032001AB11461846FFF7C1FF03464F
:10792000002B07D1019BDB00054A13440393039B03
:107930001B6800E00023184605B05DF804FB00BF9B
:10794000B00D040084B001900B468DF80330019B0C
:10795000DB00174A134402939DF80330013B032BCD
:107960001CD801A252F823F0797902008179020033
:10797000897902009379020002238DF80F3011E01B
:1079800004238DF80F300DE0029B1B798DF80F302A
:1079900008E0029B5B798DF80F3003E000238DF83F
:1079A0000F3000BF9DF80F30184604B0704700BF7D
:1079B000B00D040084B00190009100238DF80F30C9
:1079C000019B1B7803F00403DBB2002B24D0019B46
:1079D0001B78C3F30103DBB2012B02D0022B0CD0C6
:1079E00017E0009B1B68019A1288C2F38312D2B27F
:1079F0001344DA1C009B1A600BE0009B1B68019A81
:107A00005288C2F3891292B21344DA1C009B1A60A6
:107A100000BF01238DF80F309DF80F30184604B0D9
:107A20007047000000B58BB00023ADF826303E480B
:107A300004F07FFF3D4804F07CFF3D4B5B680493FE
:107A40003B4B9B680693049A069B134002339B00B2
:107A5000374A13440433089304AB19460898FFF7D8
:107A6000A9FF0346002B09D0049A069B134002335A
:107A70009B002F4A134404330893EDE700BF002313
:107A8000079311E0049B5A1C0492069A1340079A2C
:107A9000920001A90A44264902339B000B445B680B
:107AA0001360079B01330793079B022BEAD99DF8CC
:107AB0000430C3F30103DBB2012B10D0022B1CD125
:107AC000BDF80A30ADF82630BDF80630C3F389138F
:107AD0009BB203339A08049B1344049313E0BDF84C
:107AE0000A30ADF82630BDF80430C3F38313DBB29F
:107AF0001A46049B1344049305E00E494FF4BF70EB
:107B00000BF0C0FA00BF094804F01FFF0590059B69
:107B1000002B02D0049B064A5360BDF8263018465D
:107B20000BB05DF804FB00BF8C2B0020882B0020DD
:107B300074270020C00F040000B585B0002107485D
:107B400004F02CFE0390039B0293029B83F310032B
:107B50000193019B184605B05DF804FB902B0020B3
:107B600010B588B00390029101920093039B1B0C07
:107B70000793FFF7E1FF0690FFF788FE0246079B99
:107B8000934204D3284940F2A3100BF07BFA069BE2
:107B90001904009B5A1C0A9B1340079A0A43234965
:107BA00002339B000B445A60204BD3F80C34009AEC
:107BB000911C0A9A01EA0204984702461B49A31C39
:107BC0009B000B445A60009A0A9B134002339B00AF
:107BD000164A134404330593039B03F00703D9B2F9
:107BE000059A137861F3C5031370019B03F00F032B
:107BF000D9B2059A138861F389131380029BC3F3EA
:107C00001501059A136861F39F231360059A137891
:107C1000012161F301031370059A13786FF3820356
:107C2000137000BF08B010BDC00F040074270020FF
:107C300000B58DB00390029113468DF80730039B79
:107C400003330A9301238DF8273000238DF81B306E
:107C50000DF11B03184602F019F8404B1A68029BFD
:107C60001A603E4B9A683D4B59683C4B1B68CB1AD7
:107C7000134401330B9314E00121394804F01DFE35
:107C8000FFF7D0FE07900799354804F016FE334BF6
:107C90009A68324B5968314B1B68CB1A1344013335
:107CA0000B930A9A0B9B9A42E6D89DF82730002B3B
:107CB00048D0002305939DF80730002B17D09DF87E
:107CC0001430012262F301038DF814309DF8143052
:107CD00043F004038DF81430039B03F00F03DAB272
:107CE000BDF8143062F38913ADF8143016E09DF836
:107CF0001430022262F301038DF814309DF8143021
:107D000043F004038DF81430039BC3F309039AB2C4
:107D1000BDF8163062F38F13ADF816300F4B1A68AA
:107D20000E4B9B68134002339B000C4A13440433F0
:107D30000893059A089B1A60084B1A680A9B13441B
:107D4000064A13609DF81B30184601F0B5FF9DF8F8
:107D5000273018460DB05DF804FB00BF74270020E3
:107D6000902B002000B58BB00590049103920293F4
:107D70001F4B9B68079306AB012219460298FFF739
:107D800057FF0346002B24D0069B0333099300239F
:107D9000089311E0089B9B00039A1A44099B591C05
:107DA000099107990B401268114902339B000B445B
:107DB0005A60089B01330893089A029B9A42E9D3C0
:107DC000069A079B00931346029A04990598FFF7B9
:107DD000C7FE074B93F82034002B05D000BF00F0FE
:107DE00045F90346002BFAD100BF0BB05DF804FB48
:107DF0007427002000B583B0019000910023002279
:107E000000990198FFF7AEFF00BF03B05DF804FBD7
:107E100000B587B0039002910192019B059305AADA
:107E2000012302990398FFF79DFF00BF07B05DF89B
:107E300004FB00B587B00390029101920093019B6F
:107E40000493009B059304AA022302990398FFF769
:107E500089FF00BF07B05DF804FB00B589B003904F
:107E6000029101920093019B0593009B06930A9B4C
:107E7000079305AA032302990398FFF773FF00BF36
:107E800009B05DF804FB00B589B00390029101923E
:107E90000093019B0493009B05930A9B06930B9B05
:107EA000079304AA042302990398FFF75BFF00BF1E
:107EB00009B05DF804FB00B58BB00390029101920C
:107EC0000093019B0593009B06930C9B07930D9BCE
:107ED00008930E9B099305AA052302990398FFF7BF
:107EE00041FF00BF0BB05DF804FB000010B58CB083
:107EF000039002911346ADF80630534B9B680B93E9
:107F0000BDF8063003339B0805A900221846FFF789
:107F10008FFE0346002B00F08880059B0A93059B8B
:107F200003330593484B9A6805990B9B0B40D31A72
:107F300001339B000993BDF80630099A9A420ED38B
:107F4000059A0B9B134002339B003F4A13440433B2
:107F5000BDF806200299184618F039FE17E0059A78
:107F60000B9B134002339B00374A13440433099A96
:107F70000299184618F02BFE029A099BD118BDF8F9
:107F80000620099BD31A1A46304818F020FE2E4BC3
:107F9000D3F80C340A9A911C0B9A01EA0204984710
:107FA00002462949A31C9B000B445A60039B1B0CEF
:107FB0000893FFF7C1FD0790079B19040A9B5A1C01
:107FC0000B9B1340089A0A431F4902339B000B4442
:107FD0005A600A9A0B9B134002339B001A4A1344BF
:107FE00004330693039B03F00703D9B2069A137870
:107FF00061F3C5031370069A13886FF38F13138010
:10800000BDF80630C3F3090399B2069A538861F3A9
:108010008F135380069A1378022161F301031370C2
:10802000069A13786FF382031370074B93F820348A
:10803000002B05D000BF00F019F80346002BFAD141
:1080400000BF0CB010BD00BF7427002080270020A7
:10805000054B5A68044B1B689A420CBF012300234E
:10806000DBB21846704700BF7427002000B599B0F6
:10807000FFF7EEFF0346002B01D00023BEE19B4B30
:108080000022C3F81824BFF34F8F00BF974B5B68E3
:108090000493964B9B681093049A109B13400233F1
:1080A0009B00924A13440433119300231793002337
:1080B000169300230F9304AB19461198FFF77AFC2F
:1080C0000346002B19D0894BD3F81834002B14D158
:1080D000864B1A68049B9A4205D8844B1B68834AD6
:1080E000536000238AE1049A109B134002339B00E3
:1080F0007E4A134404331193DDE70023159311E006
:10810000049B5A1C0492109A1340159A920001A9DC
:108110000A44764902339B000B445B681360159B4D
:1081200001331593159B022BEAD99DF8043003F017
:108130000303DBB2022B40F09C80BDF80630C3F392
:1081400089139BB20D93BDF80630C3F389139BB21C
:10815000502B28BF50239BB20C930C9BC3F30903F5
:108160009AB2BDF8063062F38F13ADF806300C9B5F
:108170000C330B939DF80430C3F3C203DBB20F93AF
:108180000B995B4805F0AFFD1790179B002B00F093
:10819000D180179805F038FE01A9169B0C2217987C
:1081A00005F0EEFE169B0C331693049BDA43109BEE
:1081B000134001339B000A930C9A0A9B9A4242D9BE
:1081C0000A9B002B08D0049A109B134002339B009B
:1081D000464A1344043300E0464B08930A9B002BA5
:1081E00002D00A9BDBB201E00C9BDBB28DF81F30A2
:1081F0000A9B002B01D03F4B00E0002306930A9B13
:10820000002B06D00C9BDAB20A9BDBB2D31ADBB28E
:1082100000E000238DF817309DF81F20169B089969
:10822000179805F0ADFE9DF81F30169A134416936B
:10823000069B002B16D09DF81720169B06991798C1
:1082400005F09EFE0EE0049A109B134002339B0043
:10825000264A134404330993169B0C9A09991798DC
:1082600005F08EFE0D9B03339A08049B1344049380
:1082700060E09DF8043003F00303DBB2012B59D119
:10828000BDF80430C3F38313DBB2062B28BF0623EB
:10829000DAB2BDF8043062F38913ADF80430BDF8EA
:1082A0000430C3F38313DBB203330E939DF8043021
:1082B000C3F3C203DBB20F930E9B9B0019460C481D
:1082C00005F011FD1790179B002B33D0179805F080
:1082D0009BFD01A9169B0C22179805F051FE169BD9
:1082E0000C331693002315931BE000BF7427002066
:1082F0009C0D040080270020049B5A1C0492109AB5
:10830000134002339B003F4A1344191D169B04225D
:10831000179805F035FE169B04331693159B013311
:108320001593BDF80430C3F38313DBB21A46159BD3
:108330009342E1D3179B002B40D0324BD3F810343B
:108340001493304BD3F81834002B1BD0179805F03A
:108350006AFD4DE000238DF84F301498FFF748FA7E
:108360000346002B02D001238DF84F309DF84F308B
:10837000002B03D017991498FFF7F6F9149BDB68CC
:108380001B681493149B002BE4D1179805F04BFD48
:1083900000238DF803300DF10303184601F076FC3D
:1083A000184BD3F81834002B02D1049B154A5360A4
:1083B0009DF80330184601F07FFC19E0114BD3F80B
:1083C0001034129306E01298FFF7E8F9129BDB686D
:1083D0001B681293129B002BF5D10B4A0B4BD31A3F
:1083E000DB081B0443F0020309491846FFF702FDAE
:1083F000FFF72EFE034683F00103DBB2184619B0E7
:108400005DF804FB74270020E00D0400B00D0400AB
:108410001C10040000B585B00023039323E0164B25
:10842000D3F81034029301238DF807300FE002983F
:10843000FFF7CDF903461A46039B934203D100236D
:108440008DF8073006E0029BDB681B680293029BF5
:10845000002BECD19DF80730002B01D0039B07E0E7
:10846000039B01330393039B092BD8DD4FF0FF33AC
:10847000184605B05DF804FB7427002000B585B0F0
:1084800001900B468DF80330FFF7C4FF0390039B68
:10849000B3F1FF3F01D1039B22E0039BDBB21946FE
:1084A0000198FFF787F9104BD3F81034002B08D14F
:1084B0000D4A019BC2F81034019BDB6800221A6050
:1084C0000DE0094BD3F81034DA68019BDB681268C1
:1084D0001A60054BD3F81034DB68019A1A60039BCD
:1084E000184605B05DF804FB7427002000B583B082
:1084F0000D4BD3F8103401930B4B012283F8202449
:1085000009E00198FFF76BF90198FFF73BF9019B30
:10851000DB681B680193019B002BF2D100BF00BFF9
:1085200003B05DF804FB00BF7427002000B58DB0D8
:10853000059004912F4B1B68049AB2FBF3F304934C
:108540002D4B1B68049AB2FBF3F30B930B9B2B4A46
:10855000A2FB0323DB0A0A930A9B4FF4616202FB2E
:1085600003F30B9AD31A0B930B9B254AA2FB03230D
:108570005B090993099A13461B019B1A9B001A4633
:108580000B9B9B1A0B931C4B1A68049BB3FBF2F1D9
:1085900002FB01F29B1A0893089B4FF47A7202FBCC
:1085A00003F2154B1B68B2FBF3F30793089B4FF4E0
:1085B0007A7202FB03F2104B1B68079901FB03F36D
:1085C000D31A4FF47A7202FB03F20B4B1B68B2FB17
:1085D000F3F30693069B0293079B01930B9B009377
:1085E000099B0A9A0749059804F0ECFA00BF0DB000
:1085F0005DF804FB9C2B0020982B0020C5B3A291B2
:10860000898888889810040010B584B0039002917E
:10861000039BDB88002B0AD0039BDB881A461F4B89
:10862000009313461E4A1F49029804F0CBFA039B9D
:108630001B7A052B2ED0039B5B7A002B12D0039B59
:108640009B881A46039B1B7A19461046FFF77AF956
:1086500003461A46144B53F822301A46134902981F
:1086600004F0B0FA039B1B6819460298FFF75EFFFF
:10867000039B1B7A1A460E4B53F82240039B9B88A0
:1086800000211846FFF73EF90346224609490298A1
:1086900004F098FA00BF04B010BD00BF50100400F1
:1086A00060100400B4100400A4220020CC100400C8
:1086B00090220020D010040000B585B003900291F4
:1086C00013468DF80730039B1B7A052B0FD0039BB5
:1086D0005B7A002B06D00D4B1B681A460C4902989A
:1086E00004F070FA0B49029804F06CFA07E09DF868
:1086F0000730002B03D00749029804F063FA029870
:1087000004F03EFA00BF05B05DF804FBA42200208F
:10871000CC100400DC10040030B58BB0079006913B
:10872000059204930E9B1B7B8DF827300E9B002235
:108730001A730E990498FFF767FF059B062B7FD8E5
:1087400001A252F823F000BF658702006F87020084
:108750007F87020093870200B1870200D987020059
:108760000988020007990E9804F02CFA69E0069B2C
:108770001B681A4607990E9804F024FA61E0069BDC
:108780001A68069B04331B6807990E9804F01AFABE
:1087900057E0069B1A68069B04331968069B08334A
:1087A0001B6800930B4607990E9804F00BFA48E0FB
:1087B000069B1968069B04331868069B08331B68E0
:1087C000069A0C3212680192009303460A460799F2
:1087D0000E9804F0F7F934E0069B1868069B043302
:1087E0001C68069B08331B68069A0C3212680699AF
:1087F00010310968029101920093234602460799BD
:108800000E9804F0DFF91CE0069B1C68069B0433FD
:108810001D68069B08331B68069A0C32126806997D
:108820001031096806981430006803900291019293
:1088300000932B46224607990E9804F0C3F900E0F6
:1088400000BF00220E990498FFF736FF0E9B9DF89B
:1088500027201A7300BF0BB030BD00BF00B587B032
:108860000390029101920093029B082B60D8009B19
:108870001B7B8DF81330009B00221A73009901981E
:10888000FFF7C2FE0023059314E0059A029B9A426B
:1088900009D2039A059B13441B781A46264900986F
:1088A00004F090F903E02549009804F08BF9059B4A
:1088B00001330593059B072BE7D92149009804F064
:1088C00081F90023059326E0059A029B9A421BD268
:1088D000039A059B13441B788DF812309DF81230D3
:1088E0007E2B0AD89DF81230184618F0EFF8034690
:1088F000002B02D09DF8123000E02E231A461149B9
:10890000009804F05FF903E00F49009804F05AF969
:10891000059B01330593059B072BD5D901220099AF
:108920000198FFF7C9FE009B9DF813201A7300E021
:1089300000BF07B05DF804FBE0100400E81004007D
:10894000EC100400F0100400F410040082B0019058
:108950000A4B01221A6007E0019B5B080193074B59
:108960001B685B00054A1360019B054A9342F3D8DC
:10897000044A019B136000BF02B070479C2B00208B
:1089800040420F00982B002084B003468DF807303A
:108990009DF807305B08DBB21A460D4B9B5C8DF8E7
:1089A0000F309DF8073003F00103002B04D09DF831
:1089B0000F301B09DBB204E09DF80F3003F00F030A
:1089C000DBB28DF80E309DF80E30184604B07047BB
:1089D000D82B002084B003460A468DF80730134692
:1089E0008DF806309DF8073003F00103002B01D00D
:1089F0000F2300E0F0238DF80F309DF8073003F0CF
:108A00000103002B04D09DF806301B01DBB201E00E
:108A10009DF806308DF80E309DF807305B08DBB20C
:108A20001A46114B9A5C9DF807305B08DBB2194679
:108A30009DF80F301340DAB20B4B5A549DF80730B3
:108A40005B08DBB21A46084B9A5C9DF807305B085E
:108A5000DBB219469DF80E301343DAB2024B5A547A
:108A600000BF04B0704700BFD82B002000B585B010
:108A700003468DF807300023039310E00F4B1A686C
:108A8000039BDB0013440293029B1B789DF8072095
:108A90009A4201D1029B0DE0039B01330393084BE3
:108AA0001B781A46039B9342E8DB064988200AF0AC
:108AB000E9FA0023184605B05DF804FBA02B00205E
:108AC000A42B00200411040000B585B003460A461B
:108AD0008DF8073013468DF806309DF8073018469C
:108AE000FFF7C4FF0390039B002B0BD0039B5B6835
:108AF000002B07D0039B5B689DF806109DF80720AC
:108B00001046984700BF05B05DF804FB2DE9F04F13
:108B100087B003460A468DF80F3013468DF80E30A5
:108B20009DF80F301846FFF72FFF0346042B00F285
:108B3000C28001A252F823F04D8B0200C18B0200CB
:108B4000DD8B02000D8C0200238C02009DF80E309C
:108B5000002B00F0AD809DF80F3001211846FFF783
:108B600039FF00238DF817300DF11703184601F077
:108B70008DF89DF80F104FF001024FF00003A1F1A6
:108B80002004C1F1200003FA01F702FA04F427439C
:108B900022FA00F0074302FA01F6494BD3E9002319
:108BA00046EA020100913B430193454BDDE9001287
:108BB000C3E900129DF81730184601F07DF877E000
:108BC0009DF80E30002B01D0022200E000229DF81B
:108BD0000F3011461846FFF7FDFE6CE09DF80E3091
:108BE000002B0CD09DF80F3003211846FFF7F2FE42
:108BF0009DF80F3001211846FFF766FF5BE09DF8F6
:108C00000F3001211846FFF7E5FE54E09DF80E30C5
:108C1000002B4FD19DF80F3004211846FFF7DAFEE4
:108C200048E09DF80E30002B06D09DF80F30032150
:108C30001846FFF7CFFE3EE09DF80F3000211846A2
:108C4000FFF7C8FE9DF80F3000211846FFF73CFFE4
:108C500000238DF816300DF11603184601F016F8B2
:108C60009DF80F104FF001024FF00003A1F1200614
:108C7000C1F1200003FA01F502FA06F6354322FAA3
:108C800000F0054302FA01F46FEA04086FEA0509EF
:108C90000B4BD3E9002308EA020A09EA030B084B4D
:108CA000C3E900AB9DF81630184601F005F802E064
:108CB00000BF00E000BF00BF07B0BDE8F08F00BFFD
:108CC000D02B002000B583B00648074B1B685B081B
:108CD0000022194600F0FEFE019000BF03B05DF8CF
:108CE00004FB00BFB02B0020A82B002000B587B0EC
:108CF00001900023059328E01C4B1A68059BDB00BC
:108D000013440493049B1B78184607F069F8034644
:108D10008DF80F30049B5B78012B0CBF01230023DF
:108D2000DBB21A469DF80F309A420CBF0123002394
:108D30008DF80E30049B1B789DF80E2011461846C6
:108D4000FFF7E4FE059B01330593094B1B781A4698
:108D5000059B9342D0DB074BD3E90023134301D09B
:108D6000FFF7B0FF00BF07B05DF804FBA02B0020A9
:108D7000A42B0020D02B002000B585B001900B461D
:108D80008DF80330019BDBB21846FFF76FFE0390AE
:108D9000039B1B78184607F023F803468DF80B3029
:108DA000039B5B78012B0CBF01230023DBB21A4627
:108DB0009DF80B309A420CBF012300238DF80A3036
:108DC0009DF80A30002B06D0054BD3E9002313434E
:108DD00001D1FFF777FF00BF05B05DF804FB00BFCE
:108DE000D02B002000B58BB003900B4601928DF87C
:108DF0000B30019B092B01D8072367E006F0E2FE48
:108E0000034683F00103DBB2002B09D006F088FE95
:108E10000990099B0893089B002B01D0089B55E003
:108E20002C4A039B13602C4A9DF80B3013702B4A7D
:108E3000019B136020220021294817F0F1FE2949E7
:108E40004FF000024FF00003C1E9002331E09DF82C
:108E50000B30DB00039A1344079303238DF814307F
:108E600000238DF815309DF816306FF300038DF850
:108E700016309DF816306FF341038DF816309DF8CB
:108E800016306FF382038DF81630079B9B788DF8B0
:108E90001530079B1B78184605AB134A194606F098
:108EA0009DFE0990099B0693069B002B01D0069B13
:108EB0000CE09DF80B305A1E8DF80B20002BC6D10C
:108EC0000A4A00210A4800F0D1FD034618460BB0BB
:108ED0005DF804FBA02B0020A42B0020A82B002071
:108EE000D82B0020D02B0020798D0200ED8C0200C1
:108EF0005811040000B583B0114B1B68002B04D13E
:108F0000104940F235100AF0BDF8002301930CE03F
:108F10000B4B1A68019BDB0013441B780121184698
:108F200006F0D6FE019B01330193074B1B781A46CE
:108F3000019B9342ECD30023184603B05DF804FB79
:108F4000A02B002004110400A42B002086B0039065
:108F50000291019201238DF817309DF81730214AB4
:108F6000039B13601F4A029B53601E4A019B936040
:108F7000039B44F20102934213D0039B44F202028A
:108F8000934221D1019B174AD360164BDB681B88A3
:108F90001A46144B9A61134BDB685B68114AD36124
:108FA00012E0019B0F4A13610E4B1B699B680D4A2F
:108FB00053610C4B1B691B680A4A9361094B1B697F
:108FC0005B68084AD36100BF72B600BF00BF9DF85E
:108FD0001730DBB2002BFAD162B600BF00BF06B07B
:108FE000704700BFF82B002000B583B002900091BD
:108FF000019244F2010071466A4600F003F803B0A2
:1090000000BD00BF30B58BB007900691059272B6D7
:1090100000BFFFF76BFA00BFFFF728F80346002BED
:10902000FAD1079B44F2020293422FD0079B44F2ED
:109030000202934269D8079B44F20102934237D05F
:10904000079B44F2010293425FD8079B012B05D096
:10905000079B41F2010293420CD056E0394A3A4B49
:10906000D31ADB081B0443F0010338491846FEF706
:10907000C1FE57E0334A344BD31ADB081B0443F0DC
:10908000010333491846FEF7B5FE4BE0059B0993F3
:109090002C4A2D4BD31ADB081B0443F00100099B1B
:1090A0005B681A46099B1B882A49FEF7C2FE39E015
:1090B000059B0893234A244BD31ADB081B0443F077
:1090C0000104089B9D68089B9B68184605F0E2F820
:1090D00003461846089B5B681946089B1B68069A5E
:1090E00002920193009103462A461B492046FEF74F
:1090F000E2FE144A144BD31ADB081B0443F00103AD
:1091000016491846FEF776FE0CE00E4A0E4BD31AAF
:10911000DB081B0443F00103069A11491846FEF7C9
:1091200077FE00BF0F4B1B6803F00103002B00D03C
:1091300000BE059A06990798FFF708FF00BF0BB01D
:1091400030BD00BFE00D0400B00D04005C11040050
:109150007C110400A0110400BC110400E4110400FF
:10916000F8110400F0ED00E082B00190019B03F0E3
:109170000303002B0CBF01230023DBB2184602B00F
:109180007047000082B003468DF807309DF8073025
:109190009AB2064B1B889A4204D29DF807300133DD
:1091A000DBB200E00023184602B07047242C0020F8
:1091B00000B583B00B4B1B788DF807300A4B1B783A
:1091C000DBB21846FFF7DEFF03461A469DF807306C
:1091D00093420CBF01230023DBB2184603B05DF8B5
:1091E00004FB00BF202C0020212C002082B0084B63
:1091F0001B788DF80730074B1B78DBB29DF80720F2
:109200009A420CBF01230023DBB2184602B070471C
:10921000202C0020212C002000B585B003460092B0
:10922000ADF806300B46ADF80430BDF8043001331C
:109230009BB2DB00ADF80E300098FFF795FF0346B8
:1092400083F00103DBB2002B01D0072317E00E4AA5
:10925000009B1360BDF80E30009A13440B4A136054
:109260000B4B00221A700B4B00221A700A4ABDF8F1
:1092700006301380094ABDF80430138000231846D5
:1092800005B05DF804FB00BF182C00201C2C00204A
:10929000212C0020202C0020222C0020242C002017
:1092A00000B587B003900B460192ADF80A30374BFA
:1092B0001B88BDF80A209A4260D84FF6FF73ADF8BC
:1092C000123000238DF811300DF11103184600F013
:1092D000DDFCFFF76DFF0346002B0ED12C4B1B78F6
:1092E000DBB2ADF812302A4B1B78DBB21846FFF721
:1092F00049FF03461A46264B1A709DF8113018464E
:1093000000F0DAFCBDF812304FF6FF72934232D013
:10931000204B1A68BDF81230DB001344019A1A6022
:10932000039B002B1CD0BDF80A30002B18D01A4B21
:109330001B68BDF812201549098801FB02F213448D
:10934000BDF80A200399184617F041FC114B1A6822
:10935000BDF81230DB001344BDF80A209A8007E004
:109360000C4B1A68BDF81230DB00134400229A80BF
:109370000023059304E00423059301E009230593EA
:10938000059B184607B05DF804FB00BF222C0020A7
:10939000212C0020182C00201C2C00200023184613
:1093A0007047000000B585B02FE0204B1B78DBB282
:1093B000ADF80E301E4B1B68BDF80E201D49098804
:1093C00001FB02F2134402931B4B1A68BDF80E30E6
:1093D000DB0013449B88ADF80630174B1A68BDF8C4
:1093E0000E30DB0013441B680093BDF80620009B81
:1093F0001146029898470D4B1B78DBB21846FFF7D1
:10940000C1FE03461A46094B1A70FFF7C7FF034611
:1094100083F00103DBB2002B04D0FFF7E7FE034625
:10942000002BC2D000BF05B05DF804FB202C00204B
:109430001C2C0020222C0020182C0020F0B583B01A
:10944000124801F01DF8034618464FF00001104B7A
:10945000D3E90023861841EB0307CDE900670D4BE4
:10946000D3E90023DDE90001994208BF904207D209
:10947000DDE9002312F1807443F10005CDE90045D8
:10948000DDE900231046194603B0F0BDC8220020D4
:10949000302C0020382C002088B001900091019BD6
:1094A0000793009B0693079BD3E90223CDE904238E
:1094B000069BD3E90223CDE90223DDE90423DDE99C
:1094C0000201994208BF90422CBF01230023DBB266
:1094D000184608B07047000000B585B001900B46F3
:1094E000ADF80230BDF80230082B03D007498F20B9
:1094F00009F0C8FD019B0393039B1B68039A526804
:109500001046984700BF05B05DF804FB1C1204002C
:1095100030B589B00190019B5B69002B03D13349C1
:10952000A22009F0AFFD00238DF81F30304B1B78CF
:10953000002B56D0019B002B53D0019B1B7FDBB22D
:10954000002B4ED0FFF77AFF019BD3E9022399420B
:1095500008BF90423DD3019B1B69002B02D1019BA8
:1095600000221A77019B5B690393019B9B6904931B
:1095700003AB204A08211846FFF792FE0690069B8F
:109580000593059B002B04D0184AB5210598FFF7D9
:109590002BFD019B1B69002B23D0019B1B7FDBB2A2
:1095A000002B1ED0019BD3E90201019B1B691A46C7
:1095B0004FF00003841841EB0305019BC3E902450A
:1095C000019B19460C4804F0BFFD01238DF81F30A4
:1095D00007E0019B1946084804F0B6FD01238DF809
:1095E0001F309DF81F30184609B030BD1C12040012
:1095F0002C2C0020D994020074120400F0B589B01C
:10960000019000910D230793009B00221A70019B8B
:10961000D3E90245FFF712FF02460B46A61A65EB97
:109620000307CDE90467DDE90423012A73F1000390
:109630001BDB049BB3F5350F05D300F0A9FA0246F6
:10964000154B134403E0019BD3E902231346039314
:109650004FF49603039A0021104800F013FE079080
:10966000079B002B05D1012313E000210B4800F0DC
:10967000E1FE079B0D2B07D10198FFF749FF034639
:109680001A46009B1A7003E00549F52009F0FAFC20
:109690000023184609B0F0BDFFFFB400C822002027
:1096A0001C12040000B583B0044804F087FD01904B
:1096B000019B184603B05DF804FB00BF7412040060
:1096C00000B583B0044804F09BFD0190019B18464F
:1096D00003B05DF804FB00BF7412040000B583B052
:1096E000FFF7E0FF0190019B002B02D0019B0022BD
:1096F0001A77019B002BF3D100BF00BF03B05DF8C8
:1097000004FB0000054BD3E9002312F1807043F104
:109710000001024BC3E9000100BF7047302C00205C
:1097200000B583B00190134B1B68002B1DD001982E
:1097300000F0A6FE0F4B1B68D3E90223134623F06B
:109740007F43194600F018FA0346B3F5960F04D389
:1097500009494FF4957009F095FC064B1B681846B3
:10976000FFF7D6FE034B00221A6000BF03B05DF87E
:1097700004FB00BF282C00201C12040000B583B09D
:109780000190FFF75BFE02460B460349C1E9002347
:1097900000BF03B05DF804FB382C002000B585B095
:1097A0000190FFF78DFF039000238DF80B30039B92
:1097B000002B48D02B4B1B68002B03D101238DF8C5
:1097C0000B3019E0039BD3E90201264B1B68D3E958
:1097D0000223994208BF90420ED201238DF80B302C
:1097E000204B1B681B7FDBB2002B05D01D4B1B6879
:1097F00019461D4804F0A8FC9DF80B30002B2AD018
:10980000FFF750FF03900DF10A0319460398FFF785
:10981000F5FE0346002B12D0124B1B68002B02D121
:10982000019800F03BFC0F4A039B13609DF80A303F
:1098300083F00103DBB2002BB3D000BF0EE0094B75
:1098400000221A60ADE7074B1B68002B05D1019879
:1098500000F03AFC01E000BF00E000BF00BF05B02F
:109860005DF804FB282C00207412040000B587B0BA
:1098700001902C4A03AB1946104602F0A6FE059053
:1098800048E0059B1B78022B2ED0022B32DC002BEC
:1098900002D0012B14D02DE0059B5B681B7FDBB24F
:1098A00083F00103DBB2002B26D0059B5B6801220D
:1098B0001A77059B5B6819461B4804F045FC1BE0C2
:1098C000059B5A68194B1B689A4203D1174B00221B
:1098D0001A6012E0059B5B681946134804F0A4FC6B
:1098E00003468DF8133008E0FFF7F8FE104B012215
:1098F0001A7002E000BF00E000BF0A4A03AB19463D
:10990000104602F07BFE074A03AB1946104602F0F0
:109910005CFE0590059B002BB3D100BF00BF07B0D4
:109920005DF804FBE82C002074120400282C0020B1
:109930002C2C002000B583B00190019800F06DFD43
:109940000346002B01D0FFF7DDFE0021019800F057
:1099500082FD0346002B02D00198FFF7E1FE0121B2
:10996000019800F078FD0346002B02D00198FFF724
:1099700005FF0198FFF77AFF0198FFF70FFF00BF7F
:1099800003B05DF804FB000008B5024800F085FD57
:1099900000BF08BDC822002000B585B00346009175
:1099A0008DF80730114A02AB1946104602F0E0FD6F
:1099B0000390039B002B13D0039B9DF807201A7084
:1099C000039B009A5A60094A02AB1946104602F0FE
:1099D000E8FD0346002B01D0FFF7D6FF002300E08F
:1099E0000423184605B05DF804FB00BFE82C0020F6
:1099F00000B583B0164B1B68009316480823A822B5
:109A0000154902F06EFD0190019B002B01D0019BD6
:109A100019E06B46114A1946114800F0C1FA01904D
:109A2000019B002B01D0019B0DE001210C4800F0AF
:109A3000E3FC01230B4A0121094800F05BFB0A4BC0
:109A400001221A70019B184603B05DF804FB00BFA9
:109A500070120400E82C0020402C002035990200F0
:109A6000C8220020FFFF7F002C2C002000B587B00B
:109A700003900B4601928DF80B30039B002B04D111
:109A8000134940F22E2009F0FDFA019B002B04D16E
:109A90000F4940F22F2009F0F5FA019B002B01D16C
:109AA000072310E0039B1B680593059B019A5A61ED
:109AB0009DF80B30012B0CBF01230023DBB21A46AB
:109AC000059B1A610023184607B05DF804FB00BF30
:109AD0001C12040030B587B0039002910192039BE1
:109AE000002B04D1154940F23E2009F0CBFA039B2C
:109AF0000593059B1B7FDBB2002B01D000231AE0EE
:109B0000059B019A9A61FFF799FC029B1A464FF058
:109B10000003841841EB0305059BC3E90245059B3F
:109B20001B69002B02D0059B029A1A61059900203F
:109B3000FFF732FF0346184607B030BD1C12040081
:109B400000B585B00190019B002B04D109494FF469
:109B5000157009F097FA019B0393039B00221A7773
:109B600003990120FFF718FF0346184605B05DF87A
:109B700004FB00BF1C12040082B001900091019A06
:109B8000009BD31A23F07F43184602B070470000B1
:109B900008B5034800F074FC0346184608BD00BF32
:109BA000C822002082B0EFF310830093009B019342
:109BB00072B600BF019B184602B0704762B600BF84
:109BC00000BF704700B585B00190FFF7EBFF039031
:109BD000164B9B68002B1BD1144B01229A60144B2F
:109BE000D3F88020134B1340104A1360104B114AD6
:109BF000C3F880200E4BD3F884300C4A53600C4BD2
:109C00004FF0FF32C3F88420019B00221A7002E05B
:109C1000019B01221A70039B002B01D1FFF7CEFF9D
:109C20000023184605B05DF804FB00BFFC2C0020A3
:109C300000E100E0FC06FFBD00B585B003468DF8ED
:109C40000730104B9B68002B16D09DF80730002B77
:109C500012D1FFF7A7FF03900B4A0A4B1B68136052
:109C6000094A084B5B685360064B00229A60039BCD
:109C7000002B01D1FFF7A2FF0023184605B05DF8C5
:109C800004FB00BFFC2C002000E100E000B583B025
:109C9000019000F02BF80346012B03D00549432027
:109CA00009F0F0F90198FFF78DFF00BF03B05DF8F0
:109CB00004FB00BF8012040000B583B003468DF89A
:109CC000073000F013F80346012B03D0064951205A
:109CD00009F0D8F99DF807301846FFF7ADFF00BF2F
:109CE00003B05DF804FB00BF8012040084B0EFF302
:109CF00005830193019BC3F308030393039B002B8C
:109D00000DD1EFF314830093009B0293029B03F0A9
:109D10000103002B0CBF01230023DBB200E0012371
:109D2000184604B07047000082B003468DF8073033
:109D30009DF8073003F01F0205499DF907305B09C4
:109D4000012000FA02F241F8232000BF02B0704760
:109D500000E100E082B003468DF807309DF807303F
:109D600003F01F0206499DF907305B09012000FA44
:109D700002F2403341F8232000BF02B0704700BF19
:109D800000E100E082B0034600918DF807309DF9B4
:109D90000730002B0CDA009BDAB20C499DF8073033
:109DA00003F00F03043B5201D2B20B441A7609E0D0
:109DB000009BDAB206499DF907305201D2B20B443A
:109DC00083F8002300BF02B0704700BF00ED00E041
:109DD00000E100E000B583B003460A468DF8073085
:109DE00013468DF806309DF80630012B03D99DF8F7
:109DF0000630032B0BD99DF80630042B03D99DF8B0
:109E00000630072B03D908496B2009F03BF99DF870
:109E100006209DF9073011461846FFF7B3FF00BF33
:109E200003B05DF804FB00BFD812040000B583B096
:109E300003468DF807309DF907301846FFF774FF89
:109E400000BF03B05DF804FB00B585B00190019B35
:109E5000002B0AD0074B43F001030393019B9B01A6
:109E60000293039B0298984700E000BF05B05DF89D
:109E700004FB00BF1014040084B00390029101920F
:109E8000039B029A02F5A872019943F8221000BFC1
:109E900004B0704782B001900091019B009A02F5D6
:109EA000A87253F82230184602B0704782B0019071
:109EB0000091019B009AC3F8042300BF02B07047D1
:109EC00082B001900091019B009AC3F8082300BF63
:109ED00002B0704782B001900B46ADF80230BDF879
:109EE0000230019A13441B68184602B0704784B0D0
:109EF00001900B46ADF80230BDF80230019A1344D0
:109F000000221A60BDF80230019A13441B680393C3
:109F1000039B00BF04B0704782B00190019BD3F84F
:109F20000435184602B0704700B583B00190009127
:109F3000009BB3F5805F04D306494FF4BE7009F06F
:109F4000A1F8019B009AC3F8082500BF03B05DF893
:109F500004FB00BF2013040082B001900B468DF873
:109F600003309DF80320019B13441A46012313601C
:109F700000BF02B0704782B001900091019B009A2F
:109F8000C3F8442300BF02B0704782B00190009133
:109F9000019B009AC3F8482300BF02B0704700003D
:109FA00000B587B0039002910192039B002B03D16F
:109FB0003349552009F066F8029B002B03D1304944
:109FC000562009F05FF8019B002B03D12C49572044
:109FD00009F058F8039B5B7919462A4A019B42F81D
:109FE0002130039B5B79284ADB0013441B79002B4B
:109FF0000ED008230593254A254BD31ADB081B04F2
:10A0000043F0020323491846FDF7F4FE059B32E0B6
:10A01000039B1A68029B1B8819461046FFF784FFB2
:10A02000039B93F90420029B9B7819461046FFF787
:10A03000D1FE039B93F904301846FFF7F7FE039B0C
:10A040005B79114ADB00134401221A71039B5B798F
:10A0500019460D4A039B42F83130002305930B4A01
:10A060000B4BD31ADB081B0443F003030A491846C1
:10A07000FDF7C0FE059B184607B05DF804FB00BF66
:10A0800068130400082D00200C2D0020F00D0400A2
:10A09000B00D0400B8130400DC13040000B583B055
:10A0A0000190019B002B03D10649872008F0EAFFAD
:10A0B000019B1B6800211846FFF74EFF00BF03B04D
:10A0C0005DF804FB6813040000B583B00190019BA8
:10A0D000002B03D106498D2008F0D4FF019B1B689B
:10A0E00004211846FFF738FF00BF03B05DF804FBFA
:10A0F0006813040000B587B00390029101928DF8B7
:10A100000330039B002B03D12149962008F0BAFFAE
:10A110004FF48032029B02FA03F30593029B503303
:10A120009BB29B00ADF81230019B23F07F4301935B
:10A13000039B1B6805991846FFF7C2FE039B1B682B
:10A1400005991846FFF721FF039B1B68BDF81220F5
:10A1500011461846FFF7CBFE039B1B68019A029934
:10A160001846FFF789FE039B1B6805991846FFF701
:10A1700002FF9DF80330002B05D0039B1B68059957
:10A180001846FFF793FE00BF07B05DF804FB00BF61
:10A190006813040000B585B00390029113468DF852
:10A1A0000730039B002B03D10B49A92008F06AFF5D
:10A1B000039B1B6802991846FFF7DDFE9DF80730E8
:10A1C000002B05D0039B1B6802991846FFF76EFE13
:10A1D00000BF05B05DF804FB6813040000B583B050
:10A1E00001900091019B002B03D10A49B32008F094
:10A1F00049FF019B1B6800991846FFF7C6FE019BAB
:10A200001B6800991846FFF75BFE00BF03B05DF8BE
:10A2100004FB00BF6813040000B583B001900B4637
:10A22000ADF80230019B002B03D10F49BA2008F092
:10A2300029FF019B1B68BDF8022011461846FFF755
:10A2400049FE0346002B09D0019B1B68BDF8022084
:10A2500011461846FFF74BFE012300E00023184685
:10A2600003B05DF804FB00BF6813040082B00190E6
:10A270000091019A009BD31A23F07F43184602B045
:10A280007047000000B58BB00390029101920093DB
:10A29000039B002B03D15749CD2008F0F3FE4FF468
:10A2A0008032029B02FA03F30993029B50339BB264
:10A2B0009B00ADF82230019B23F07F430193099965
:10A2C0000398FFF78BFF039B1B681846FFF724FEDC
:10A2D0000790039B1B6802991846FFF7DBFD069069
:10A2E000039B1B68079A02991846FFF7C5FD039B5D
:10A2F0001B68BDF8222011461846FFF7F8FD0799A4
:10A300000698FFF7B3FF0346012B0AD11020FFF791
:10A310009BFD039B1B68BDF8222011461846FFF7E2
:10A32000E6FD039B1B681846FFF7F6FD07900799AB
:10A330000198FFF79BFF0590039B1B68099918463E
:10A34000FFF719FE059B012B15D1039B1868019B94
:10A3500001331A460299FFF78FFD1020FFF774FDB5
:10A36000039B1B681846FFF7D7FD0246079B9342E5
:10A3700035D00D2339E0039B1B68019A02991846DA
:10A38000FFF77AFD039B1B681846FFF7C5FD079092
:10A39000019B013B07991846FFF768FF0590009B5A
:10A3A000C3F1FF1303F57F43059A9A4201D90D23A8
:10A3B0001BE0059B002B12D1039B1868019B013306
:10A3C0001A460299FFF758FD039B1B681846FFF7D2
:10A3D000A3FD0246079B934201D00D2305E0012215
:10A3E00009990398FFF7D6FE002318460BB05DF8D5
:10A3F00004FB00BF6813040000B583B001900B4656
:10A400008DF803309DF803301A4602210198FFF7BA
:10A41000C1FE00BF03B05DF804FB00B583B001903E
:10A420004FF482710198FFF7F7FE0346184603B018
:10A430005DF804FB00B583B0019000914FF48032C9
:10A44000009B02FA03F319460198FFF7C7FE00BF0D
:10A4500003B05DF804FB00B585B001900091009B4E
:10A4600050339BB29B00ADF80E30BDF80E3019464C
:10A470000198FFF7D1FE0346184605B05DF804FBCE
:10A4800000B583B00190019B1B681846FFF744FD9F
:10A490000346184603B05DF804FB00B583B0019095
:10A4A000019B93F904301846FFF754FC00BF03B03A
:10A4B0005DF804FB08B5044B1B68044A126810469B
:10A4C000984700BF08BD00BF082D00200C2D0020BC
:10A4D00082B00190019B03F00303002B0CBF01230A
:10A4E0000023DBB2184602B07047000000B585B00B
:10A4F0000190002303930EE00B4A039B52F8233094
:10A50000002B05D0084A039B52F823300198984746
:10A51000039B01330393039B032BEDD900BF00BFC3
:10A5200005B05DF804FB00BF242D002082B001902F
:10A530000091019B1B78013B052B61D801A252F8C9
:10A5400023F000BF5DA5020065A502008BA50200F7
:10A55000BDA50200DDA50200F9A50200009B0022B6
:10A560001A704EE0009B01221A70019B1A89009B11
:10A570009A81019B9A88009BDA81019BDA68009B93
:10A580009A60009B00221A743BE0009B02221A7022
:10A59000019B1A89009B9A81019B9A88009BDA8112
:10A5A000019BDA68009B9A60019B9B7D062B0CBF88
:10A5B00001230023DAB2009B1A7422E0009B0322DD
:10A5C0001A70019BDA88009B9A81019B1A89009B73
:10A5D000DA81019BDA68009B9A6012E0009B0422FA
:10A5E0001A70019BDA88009B9A81009B0022DA8115
:10A5F000009B00229A6004E0009B05221A7000E094
:10A6000000BF00BF02B0704784B001900091019B71
:10A610000393039A009B9A4206D2039B1B68B3F1F3
:10A62000FF3F01D0012300E0002303F00103DBB270
:10A63000184604B0704782B00190019B5B880333D9
:10A640009B00019A1344184602B0704700B583B0CE
:10A65000019000910198FFF7EEFF0246009B9342A4
:10A6600001D2022311E0019B9B884FF6FF729342B7
:10A6700008D0019B1B88002B04D0019B9B68B3F181
:10A68000FF3F01D1012300E00023184603B05DF82D
:10A6900004FB000000B583B00190019B002B13D098
:10A6A0000D4BDB681A46019B93420DD30A4B1B6985
:10A6B0001A46019B934207D80198FFF709FF03460A
:10A6C000002B01D0012300E0002303F00103DBB2E3
:10A6D000184603B05DF804FB6022002082B00190B0
:10A6E000019B002B04D0019B1B680B4A934201D0B5
:10A6F00003230DE0019B04331B68084A934204D0F6
:10A70000074A934203D1012302E0002300E0032320
:10A71000184602B0704700BFDEC0ADDEFE011EF17C
:10A72000FF011EF184B00190019B1B68B3F1FF3F54
:10A7300006D0019B1B680E4A934201D0002314E00F
:10A74000012303930CE0039B9B00019A13441B68B5
:10A75000B3F1FF3F01D0002307E0039B01330393D4
:10A76000039BB3F5806FEED30123184604B0704706
:10A77000DEC0ADDE82B003460A46ADF806301346B1
:10A78000ADF80430BDF80620134913469B0013446E
:10A790009B000B4408331A88BDF804301344ADF80D
:10A7A0000430BDF806200C4913469B0013449B005F
:10A7B0000B440A331A88BDF804301344ADF8043052
:10A7C000BDF80430B3F5806F94BF01230023DBB2E2
:10A7D000184602B0704700BFD42D002084B001900D
:10A7E000009148F2096303930023ADF80A3027E093
:10A7F000BDF80A20164913469B0013449B000B44E6
:10A8000004331B68009A9A4215D9BDF80A201049F2
:10A8100013469B0013449B000B4404331B6803F551
:10A820008053009A9A4206D200230393019BBDF8FD
:10A830000A201A8008E0BDF80A300133ADF80A306A
:10A84000BDF80A30012BD3D9039B184604B07047DA
:10A85000D42D002000B589B0039002910192039B92
:10A8600003F580530693039B08330393029B022254
:10A870001A80039B079332E006990798FFF7E6FEDC
:10A8800003468DF817309DF81730002B0AD1079B2F
:10A890009A68184B1B689A4213D9079B9B68154A04
:10A8A00013600EE0019B002B02D0019B01221A7065
:10A8B0009DF81730022B04D1029B4FF480621A805E
:10A8C00014E0029B1A88079B5B8813449BB20333F6
:10A8D0009AB2029B1A800798FFF7ADFE079006997F
:10A8E0000798FFF791FE0346002BC5D109B05DF82C
:10A8F00004FB00BF342D002082B001900091009B2A
:10A900009B7D022B09D9019B1A89009BDB8813448C
:10A910009BB203339AB2019B1A81019B5A89009B17
:10A92000DB88D31A9BB2033B9AB2019B5A8100BFCA
:10A9300002B0704700B583B0074B1B68194600236F
:10A9400000930823054A064802F030FD03461846E6
:10A9500003B05DF804FB00BFFC2D0020641404006C
:10A960006022002000B585B0039003990023009376
:10A970000823044A044802F019FD0346184605B0AE
:10A980005DF804FB6C1404006022002000B585B063
:10A9900003460091ADF8063000238DF80F30BDF866
:10A9A00006300333ADF80A30BDF80A3040F2FE320B
:10A9B000934202D948F208634BE00023ADF80C3013
:10A9C0003BE0BDF80C20254913469B0013449B0037
:10A9D0000B441B78002B2BD1BDF80A20BDF80C309E
:10A9E00011461846FFF7C6FE0346002B20D0012370
:10A9F0008DF80F30009BBDF80C201A80BDF80C209C
:10AA0000164913469B0013449B000B440A331988D4
:10AA1000BDF80C20BDF80A300B4498B20F4913461C
:10AA20009B0013449B000B440A3302461A8008E043
:10AA3000BDF80C300133ADF80C30BDF80C30012BF3
:10AA4000BFD99DF80F30002B01D0002301E048F260
:10AA50000663184605B05DF804FB00BFD42D002046
:10AA600082B003460A46ADF806301346ADF804300E
:10AA7000BDF804200D4913469B0013449B000B4472
:10AA80000A331A88BDF80630D31A9BB2BDF80420E9
:10AA9000033B98B2054913469B0013449B000B44AB
:10AAA0000A3302461A8000BF02B07047D42D00203E
:10AAB00008B50121024801F000FF0346184608BD11
:10AAC000342D002000B585B003460091ADF8063066
:10AAD000BDF80620244913469B0013449B000B44F9
:10AAE00004331B6803F580530293009B1B68039398
:10AAF000039B002B04D00398FFF79DFD039026E0F5
:10AB0000BDF80620184913469B0013449B000B44D4
:10AB100004331B680833039319E002990398FFF785
:10AB200095FD0346022B10D0022B10DC002B02D027
:10AB3000012B05D00BE0009B039A1A6001230EE065
:10AB40000398FFF778FD039001E0002307E00299E6
:10AB50000398FFF759FD0346002BDED1002318466A
:10AB600005B05DF804FB00BFD42D002000B585B012
:10AB700001900091019B5B681846FFF78BFD03462F
:10AB8000002B19D0019B1A89244B1B899A4213D19F
:10AB9000019B1A68019B5B689B689A420CD1019BE0
:10ABA0005B6819460098FFF719FE0346002B0CBF9F
:10ABB00001230023DBB22CE0009B00221A8023E05B
:10ABC0000023029310E0029B0393039B9A68019B6E
:10ABD0001B689A4208D1029A019B5A600F4B1A894E
:10ABE000019B1A81012314E0009B1B8802AA1146D5
:10ABF0001846FFF767FF0346002BE4D1009B1B8834
:10AC000001339AB2009B1A80009B1B88012BD7D975
:10AC10000023184605B05DF804FB00BF042E002099
:10AC200000B587B00390029101920093324B1B78DC
:10AC3000DBB283F00103DBB2002B02D048F20163E8
:10AC400055E0019B002B02D0009B002B49D148F21C
:10AC500004634CE0009B9B881946284A0B469B00E6
:10AC60000B449B0013441B78002B33D124E0009B42
:10AC70001B680593039B002B06D0059B9A88039BBA
:10AC80001B889A4200D017E0029B002B06D0059B40
:10AC90001A88029B1B889A4200D00DE0059B9A6897
:10ACA000019B1A60009B1A68019B5A60144B1A8919
:10ACB000019B1A8100231AE0009B9B88009A114691
:10ACC0001846FFF7FFFE0346002BD0D1009B002261
:10ACD0001A6000E000BF009B9B8801339AB2009B82
:10ACE0009A80009B9B88012BB4D948F209631846CF
:10ACF00007B05DF804FB00BF142D0020D42D002008
:10AD0000042E002000B587B0029101920093034603
:10AD1000ADF80E30BDF80E20324913469B001344A7
:10AD20009B000B4404331B6808330593BDF80E20C9
:10AD30002C4913469B0013449B000B4404331B68AF
:10AD400003F58053049342E004990598FFF77EFCD5
:10AD50000346022B25D0022B38DC002B16D0012B0A
:10AD600034D1019B1B8801339AB2019B1A80009B4E
:10AD70001A88059B5B8813449BB203339AB2009BED
:10AD80001A800598FFF757FC059020E0029B1B886E
:10AD900001339AB2029B1A800598FFF74CFC05908C
:10ADA00015E0019B1B8801339AB2019B1A80009B1E
:10ADB0001A880499059BCB1A9B109BB213449AB234
:10ADC000009B1A80089B01221A7007E000BF0499BB
:10ADD0000598FFF719FC0346002BB5D107B05DF8C5
:10ADE00004FB00BFD42D002000B585B00190084BB6
:10ADF0000199184601F0BCFB03901C220021039826
:10AE000015F00EFF039B184605B05DF804FB00BF6C
:10AE1000C42D002000B583B00190044B0199184661
:10AE200001F0BFFB00BF03B05DF804FBC42D0020A0
:10AE300000B583B00190054B0199184601F0C5FBA0
:10AE40000346184603B05DF804FB00BFC42D002084
:10AE500000B583B00190044B0199184601F0CEFB78
:10AE600000BF03B05DF804FBC42D002008B50A4BF9
:10AE70001B68002B04D109494FF4247008F002F933
:10AE80000121054801F031FD0346002B14BF0123C9
:10AE90000023DBB2184608BD1C2D00201814040046
:10AEA00000B587B0002305930023ADF812300323CB
:10AEB000ADF8103000238DF80F300023ADF80C30C2
:10AEC000F7E0BDF80C301A03824BDB6813440293A1
:10AED0000298FFF703FC03468DF807309DF8073012
:10AEE000032B08D0032B00F3DE80002B65D0012B51
:10AEF00000F09880D7E00298FFF714FC0346002B7F
:10AF00003BD0754B1B68002B29D0BDF8122073492C
:10AF100013469B0013449B000B4402221A70BDF899
:10AF200012206E4913469B0013449B000B440433CC
:10AF3000029A1A60BDF81220684913469B00134418
:10AF40009B000B44083302221A80654ABDF8123078
:10AF50005380BDF812300133ADF8123008E05E4A7C
:10AF6000029B13605C4B02229A8001238DF80F3004
:10AF7000059B43F00103059396E0BDF81030013BBB
:10AF8000ADF81030BDF81220544913469B0013440D
:10AF90009B000B440433029A1A60BDF812204F49FB
:10AFA00013469B0013449B000B4403221A70BDF808
:10AFB00012300133ADF8123076E0BDF81220474967
:10AFC00013469B0013449B000B4400221A70BDF8EB
:10AFD0001220424913469B0013449B000B44043348
:10AFE000029A1A60BDF8122013469B0013449B007E
:10AFF00008333A4A9918BDF8122013469B001344AF
:10B000009B001033354A13441A460298FFF722FC7E
:10B01000059B43F002030593BDF812300133ADF8F0
:10B02000123041E09DF80F30002B29D0BDF81220DE
:10B030002A4913469B0013449B000B4402221A70BA
:10B04000BDF81220244B1968244813469B00134472
:10B050009B00034404331960BDF812201F491346B6
:10B060009B0013449B000B44083302221A801C4AA5
:10B07000BDF812305380BDF812300133ADF81230F4
:10B08000154A029B1360002216490298FFF7E2FB63
:10B09000114B9B88022B01D1042300E00823059A61
:10B0A0001343059300E000BFBDF80C300133ADF849
:10B0B0000C30BDF80C30022B7FF603AFBDF810301A
:10B0C000012B01D800230593059BDBB2184607B07E
:10B0D0005DF804FB60220020FC2D0020D42D002010
:10B0E000042E0020002E002000B587B003900291AE
:10B0F000039B02229A750299039B1A1D0023009359
:10B100000423074802F052F90590059B002B01D15A
:10B11000002301E048F20D63184607B05DF804FB18
:10B120006022002000B587B003900291039B1B6949
:10B13000002B01D0032200E00122039B9A75029BA1
:10B1400008331946039B03F10C02002300930423E8
:10B15000074802F02BF90590059B002B01D1002335
:10B1600001E048F20D63184607B05DF804FB00BF2C
:10B170006022002000B587B003900291039B1B78EA
:10B18000032B01D1052200E00622039B9A75029B46
:10B1900004331946039B03F10802002300930423A0
:10B1A000074802F003F90590059B002B01D100230D
:10B1B00001E048F20D63184607B05DF804FB00BFDC
:10B1C0006022002000B587B003900B46ADF80A302E
:10B1D00003990023009304230D4A0E4802F0E6F879
:10B1E0000590059B002B02D048F20D630BE0BDF8E3
:10B1F0000A20094913469B0013449B000B4410335B
:10B2000001221A700023184607B05DF804FB00BF46
:10B210007414040060220020D42D002000B589B0F1
:10B22000019002AB00221A605A609A60019BDB68B1
:10B2300002930DF1160202AB11461846FFF796FC79
:10B240000346002B12D0039B0693069B9A88019B12
:10B25000DA80069B1A88019B1A81039BBDF8162091
:10B2600011461846FFF7AEFF079002E048F2096367
:10B270000793079B184609B05DF804FB00B587B03B
:10B280000190019B981D02AA0D4B0021FFF7C8FCFD
:10B290000590059B002B08D1039B094A9288114613
:10B2A0001846FFF78FFF059004E0082200210448AC
:10B2B00015F0B6FC059B184607B05DF804FB00BF0F
:10B2C000142E002000B587B003900291039B012249
:10B2D0009A75029B0C331846039B1A69039BDB8803
:10B2E0009B00002100910146074802F05FF805909D
:10B2F000059B002B01D1002301E048F20D631846A5
:10B3000007B05DF804FB00BF6022002082B0184B3C
:10B310001B8901339AB2164B1A81154B00225A80B1
:10B32000134B00221A730023ADF8063018E0BDF865
:10B330000620104913469B0013449B000B441A78C7
:10B34000BDF80630002A0CBF01220022D1B2084A03
:10B3500013440A469A72BDF806300133ADF8063040
:10B36000BDF80630012BE2D900BF00BF02B0704724
:10B37000042E0020D42D002084B0019000238DF8ED
:10B380000F300023ADF80C3031E0BDF80C301C4A12
:10B3900013449B7A002B25D0BDF80C30184A134477
:10B3A00000229A72BDF80C20164913469B001344E4
:10B3B0009B000B440C331B68002B13D1BDF80C20F1
:10B3C000104913469B0013449B000B4410331B7819
:10B3D000002B07D0019BBDF80C201A8001238DF8AB
:10B3E0000F3008E0BDF80C300133ADF80C30BDF87B
:10B3F0000C30012BC9D99DF80F30184604B07047A6
:10B40000042E0020D42D002008B5084B05221A7008
:10B41000074B02229A80064B1B6819460023012223
:10B42000044802F0A5F80346184608BD042E002083
:10B43000FC2D00206022002000B583B0164B5B88F5
:10B44000ADF80230BDF80220144913469B001344A6
:10B450009B000B440C331B68002B14D10E4B0422B1
:10B460001A70BDF802200D4913469B0013449B003F
:10B470000B4404331B68194600230122084802F0DC
:10B4800077F8019002E0FFF7BFFF0190019B18469B
:10B4900003B05DF804FB00BF042E0020D42D002073
:10B4A0006022002000B587B0104B5B680593104BFD
:10B4B0001A680F4B9B889B0013440493059B5B8881
:10B4C0000333ADF80E30094B03221A700499074B71
:10B4D0005A68BDF80E309B0000200090054801F02E
:10B4E00065FF0346184607B05DF804FB042E0020F4
:10B4F000FC2D00206022002000B583B00A4B5B8841
:10B500000A491846FFF7DEFA0346002B03D0FFF77F
:10B51000C9FF019002E0FFF78FFF0190019B1846E1
:10B5200003B05DF804FB00BF042E0020082E0020AD
:10B5300008B50A4B06221A70084B5B881946084A60
:10B540000B469B000B449B00134404331B681846B6
:10B55000FFF708FA0346184608BD00BF042E002076
:10B56000D42D002008B5054B07221A70034B00228A
:10B570005A60FFF7DFF90346184608BD042E002085
:10B5800008B50D48FFF7F8FE034683F00103DBB270
:10B59000002B0BD0094B00221A70084B00225A8056
:10B5A000064B00225A6041F61D5302E0FFF7A4FF4C
:10B5B0000346184608BD00BF062E0020042E0020BA
:10B5C00082B0094B5B680193019B5B880333ADF844
:10B5D0000230064B9A88BDF8023013449AB2034BEE
:10B5E0009A8000BF02B07047042E0020FC2D00207E
:10B5F00082B0184B1B680193174B5B881946174A9A
:10B600000B469B000B449B00134404331B68114AF8
:10B610001360114B5B881946104A0B469B000B4484
:10B620009B0013440433019A1A600B4B5B88194644
:10B63000084B9888094A0B469B000B449B00134417
:10B64000083302461A80034B02229A8000BF02B0E0
:10B65000704700BFFC2D0020042E0020D42D0020B8
:10B6600008B51A4B1B78072B2CD801A252F823F0EF
:10B6700091B60200C5B60200C5B602009DB6020032
:10B68000A9B60200B5B60200B5B60200BDB602000A
:10B69000FFF73CFE0D4B01221A7014E0FFF790FFFC
:10B6A0000A4B02221A700EE0FFF7A2FF074B062298
:10B6B0001A7008E0054B07221A7004E0034B0122C0
:10B6C0001A7000E000BF00BF08BD00BF042E0020BC
:10B6D00000B587B00190009148F20E630593019B7D
:10B6E000002B05D0634B00225A604FF40643BCE0A8
:10B6F000009B1B79032B00F2AB8001A252F823F0D0
:10B7000011B702001FB70200ADB70200CDB70200AB
:10B71000009B01221A71FFF70DF905909BE00023B1
:10B720008DF813300023ADF810302BE0BDF8102059
:10B73000514913469B0013449B000B441B78022B7A
:10B740001BD1BDF810204C4913469B0013449B00AD
:10B750000B4400221A7001238DF81330BDF810201D
:10B76000454913469B0013449B000B4404331B685C
:10B770001846FFF7F7F8059008E0BDF810300133E0
:10B78000ADF81030BDF81030012BCFD99DF8133033
:10B7900083F00103DBB2002B5CD0364B01221A7020
:10B7A000344B00225A6041F61D535EE0009B00229C
:10B7B0001A71324B02229A80304B1B6819460023C3
:10B7C00001222F4801F0D4FE059044E0009B0022A6
:10B7D0001A712A4B1B681846FFF7C4F80590294BCD
:10B7E0005B88ADF80E30254B1B680293BDF80E2028
:10B7F000214913469B0013449B000B4404331B68F0
:10B800001E4A1360BDF80E201B4913469B001344CB
:10B810009B000B440433029A1A60BDF80E20174BAC
:10B820009888154913469B0013449B000B4408332A
:10B8300002461A80114B02229A80BDF80E200E4952
:10B8400013469B0013449B000B4400221A7002E035
:10B8500000BF00E000BF059B002B05D0054B002278
:10B860005A6048F20D6300E00023184607B05DF807
:10B8700004FB00BF142D0020D42D0020FC2D00203F
:10B8800060220020042E002000B587B001900091B6
:10B89000009B9B8A1A4613469B0013449B003B4A1D
:10B8A00013440493019B002B06D000990498FFF7E2
:10B8B00023F84FF4064364E0049B5A68049B1B89F9
:10B8C0009B0013440393009B9B7D062B4DD801A244
:10B8D00052F823F019B902003DB9020025B902005F
:10B8E00031B90200F1B8020049B9020063B902009F
:10B8F000274B00225A60009B9B69254A136025490B
:10B900002348FFF733F9034683F00103DBB2002B32
:10B9100002D048F2096334E003990098FFF7E4FB92
:10B92000059026E003990098FFF7FCFB059020E0C6
:10B9300003990098FFF7C6FC05901AE00399009858
:10B94000FFF718FC059014E0009B06229A75104B37
:10B950005B68104A128811461846FFF733FC0590C1
:10B9600007E041F61D53059303E048F20E6305938B
:10B9700000BF059B002B03D000990498FEF7BCFF85
:10B98000059B184607B05DF804FB00BFD42D0020CE
:10B990001C2E0020282E002000B585B001900091BB
:10B9A000019B002B02D04FF4064329E0009B1B793A
:10B9B000022B1BD0022B1DDC002B02D0012B08D048
:10B9C00018E0009B02221A710098FFF727FC0390F1
:10B9D00015E00098FFF752FC0390039B48F20962C0
:10B9E00093420BD141F61D53039307E041F61D53DB
:10B9F000039304E048F20E63039300E000BF039B4F
:10BA0000184605B05DF804FB00B585B00190019BB8
:10BA1000002B02D04FF406433DE0214B1B7B002B53
:10BA200003D01F4B00221A7301E0FFF719FE1C4BD5
:10BA30001B78013B062B29D801A252F823F000BF46
:10BA40005DBA020065BA02006DBA020075BA020062
:10BA50008DBA02007DBA020085BA0200FFF790FDA0
:10BA6000039017E0FFF748FD039013E0FFF71AFD7E
:10BA700003900FE0FFF7E0FC03900BE0FFF758FDA9
:10BA8000039007E0FFF76EFD039003E048F20E63BA
:10BA9000039300BF039B184605B05DF804FB00BF8D
:10BAA000042E002000B589B00190404B1B68002B8C
:10BAB00005D13F48FFF7BCF903463C4A13603B4BB6
:10BAC0001B68002B04D13B4940F29B5007F0DAFA87
:10BAD000364B1B681B78013B052B2CD801A252F872
:10BAE00023F000BFFDBA02000DBB02000DBB020037
:10BAF0001DBB02001DBB02002DBB02002B4B1B68AF
:10BB000019460198FFF7E4FD019018E0274B1B68E8
:10BB100019460198FFF7B8FE019010E0234B1B680F
:10BB200019460198FFF738FF019008E00198FFF7E8
:10BB30006BFF019003E048F20E63019300BF019B8D
:10BB4000002B2BD003AB00221A605A609A60DA6097
:10BB50001A61019B41F61D52934201D0019B00E006
:10BB600000230493114B1B6803AA11461846FEF7E5
:10BB7000DDFC03AB1846FEF7B9FC0C4B00221A6043
:10BB8000002301930A48FFF763F9FFF76FF90346B3
:10BB900083F00103DBB2002B02D186E700BF00E097
:10BBA00000BF00BF09B05DF804FB00BF2C2E0020D1
:10BBB000302E00201814040008B50121054800F0BB
:10BBC00064FE0346002B02D10020FFF76BFF00BF8D
:10BBD00008BD00BF1C2D002000B583B00190019B63
:10BBE0005B681846FFF75EFF00BF03B05DF804FB1B
:10BBF00000B58BB00390029101928DF803300023C1
:10BC0000ADF824300023ADF82630534B1B78DBB25F
:10BC100083F00103DBB2002B02D048F2016397E00E
:10BC2000029B002B02D148F2046391E0029B1B8827
:10BC30004FF6FF72934203D0029B5B88002B02D128
:10BC400048F2036384E0029B5B681846FEF740FC01
:10BC5000034683F00103DBB2002B02D048F20263FB
:10BC600076E0019B002B11D1029B9B68ADF826303A
:10BC70000DF11A02BDF8263011461846FEF786FE71
:10BC80000890089B002B09D0089B61E0019B1B8852
:10BC9000ADF81A30019B5B88ADF8263005AB18462D
:10BCA000FFF7A2F80790079B002B0AD1BDF81A20D6
:10BCB000BDF8263011461846FEF7D2FE48F207635B
:10BCC00046E0079B9DF803201A70079B00229A7597
:10BCD000BDF81A20079B9A82029B5A68079B1A613B
:10BCE000FEF7E6FE0246079BDA60029B1A88079B76
:10BCF0001A81029B5A88079B9A80079BBDF82620D1
:10BD0000DA809DF80330032B06D1079B04229A7535
:10BD1000039B1A68079B9A61079BBDF824205A81F0
:10BD200005AB1846FFF776F8039B002B0DD0039B5D
:10BD300000225A60079BDA68039B1A60039B00226B
:10BD40009A72064B1A89039B1A81FFF735FF00236D
:10BD500018460BB05DF804FB142D0020042E0020C3
:10BD600000B585B001900C4B1B68042B03D148F241
:10BD70000B6303930BE0084B1B680849019A41F8D9
:10BD800023200121044800F098FD00230393039B26
:10BD9000184605B05DF804FB202D0020242D00205E
:10BDA00084B040F6F8731B68B3F1FF3F02D10F4B2C
:10BDB0001B6802E040F6F8731B6803934FF0805352
:10BDC0001B6902934FF080535B690193039BB3F1AE
:10BDD000FF3F04D1019B029A02FB03F300E0039BA7
:10BDE0000093009B184604B0704700BF1410001069
:10BDF00000B583B04FF440530193FFF7D1FF0346E2
:10BE0000054A1361044B1A69019BD31A024AD36095
:10BE100000BF03B05DF804FB6022002008B5FFF707
:10BE2000E7FF00220349044801F078FA0346184668
:10BE300008BD00BF741704006022002008B5044844
:10BE40001C238C22034900F04CFB00BF08BD00BF3F
:10BE5000C42D0020382D002000B58BB002AB00228D
:10BE60001A605A609A60DA601A61424B1B78DBB242
:10BE7000002B05D002AB1846FEF738FB002375E017
:10BE80003D4800F04AFD0346002B01D000236DE041
:10BE9000FFF7C4FF0990099B002B01D0099B65E0C7
:10BEA000FFF7CCFFFEF7FCFF03468DF823309DF82B
:10BEB0002330062B08D0062B12DC002B01D0022BDE
:10BEC0000ED148F20A6351E02A4B01221A70294B25
:10BED00000225A6002AB1846FEF708FB002345E03B
:10BEE00000BF01AB1846FEF77FFF0790079B002BB2
:10BEF00002D148F2076339E0079B01221A709DF8CE
:10BF00002330013B0A2B29D801A252F823F000BFAD
:10BF10003DBF02005DBF02003DBF02005DBF0200E9
:10BF200055BF02005DBF020055BF02005DBF0200A9
:10BF300045BF02004DBF020045BF0200079B002223
:10BF40001A710CE0079B03221A7108E0079B02227A
:10BF50001A7104E0079B01221A7100E000BF01ABD7
:10BF60001846FEF757FFFFF727FE002318460BB0D1
:10BF70005DF804FB142D0020182D002000B585B0BD
:10BF800001900091019B002B02D0009B002B02D15D
:10BF900048F204632AE00DF10A0319460198FEF7FE
:10BFA000E5FD0346002B1FD0019B5B680393BDF8A2
:10BFB0000A301A4613469B0013449B0008330D4A6F
:10BFC000134404330121184600F077FC009B039AC8
:10BFD0001A60019B5B6803F10C02009B5A60019B95
:10BFE00001229A72002301E048F20963184605B065
:10BFF0005DF804FBD42D002000B585B00190019BB5
:10C00000002B02D148F204633BE00DF10A0319460C
:10C010000198FEF7ABFD0346002B2ED0BDF80A3089
:10C0200019461A4A0B469B000B449B0013440C33E1
:10C030001B68002B1DD0019B9B7A002B19D0BDF8EB
:10C040000A301A46114913469B0013449B000B44C7
:10C050000C331B68591E0D4813469B0013449B006C
:10C0600003440C331960019B00229A72002303934E
:10C0700006E048F20563039302E048F20963039384
:10C08000039B184605B05DF804FB00BFD42D0020CB
:10C0900000B583B00190009102230022009901981D
:10C0A000FFF7A6FD0346184603B05DF804FB00B594
:10C0B00083B001900091019B002B02D148F20463F0
:10C0C00006E00323002200990198FFF791FD034643
:10C0D000184603B05DF804FB00B585B00346ADF823
:10C0E00006301A4B1B78DBB283F00103DBB2002B66
:10C0F00002D048F2016324E0BDF806304FF6FF722B
:10C10000934202D148F203631BE002AB1846FEF7EC
:10C110006BFE0390039B002B02D148F2076310E0F3
:10C12000039B05221A70039B01221A71039BBDF821
:10C130000620DA8002AB1846FEF76CFEFFF73CFDE6
:10C140000023184605B05DF804FB00BF142D002045
:10C1500000B583B0154B1B78DBB283F00103DBB273
:10C16000002B02D048F201631BE06B461846FEF735
:10C170003BFE0190019B002B02D148F2076310E0C7
:10C18000019B06221A706B461846FEF743FE084BC9
:10C190001B78002B02D0064B01221A73FFF70CFD0F
:10C1A0000023184603B05DF804FB00BF142D0020E7
:10C1B000042E002000B585B0029201930346ADF82D
:10C1C0000E300B46ADF80C3003A90DF10E00019BAB
:10C1D000029AFEF725FD0346184605B05DF804FBFC
:10C1E00000B585B0034602910192ADF80E300DF115
:10C1F0000E01019B029A0020FEF712FD034618462D
:10C2000005B05DF804FB00B585B0034602910192CC
:10C21000ADF80E300DF10E00019B029A0021FEF7E1
:10C22000FFFC0346184605B05DF804FB82B00190A0
:10C230000091019B002B02D0009B002B02D148F201
:10C24000046304E0019B1A68009B1A6000231846EF
:10C2500002B0704710B586B003904FF48063ADF81C
:10C2600014300023ADF812304F4B1B78DBB283F053
:10C270000103DBB2002B02D048F2016391E0039B83
:10C28000002B02D148F204638BE0122200210398B4
:10C2900014F0C6FC039B03221A800023ADF816306D
:10C2A0007AE0BDF81620414913469B0013449B00D9
:10C2B0000B4408331988BDF816203C4813469B00F0
:10C2C00013449B0003440A331B880B44ADF8103021
:10C2D000BDF81620354913469B0013449B000B44C0
:10C2E00004331B681846FEF7F9F90346032B05D102
:10C2F000039B1B88013B9AB2039B1A80BDF8162052
:10C300002A4913469B0013449B000B440C331968C5
:10C31000039B5A888BB213449AB2039B5A80039BA7
:10C320001989BDF81620214813469B0013449B0031
:10C3300003440A331B880B449AB2039B1A81039B64
:10C340005A89BDF8103013449AB2039B5A81BDF844
:10C350001420BDF81030D31AADF81230039B9B891E
:10C36000BDF812209A4203D9039BBDF812209A818E
:10C37000039B191D039B9A1D039B03F10E04039B52
:10C380001033BDF8160000932346FEF7BBFCBDF842
:10C3900016300133ADF81630BDF81630012B80D9B8
:10C3A0000023184606B010BD142D0020D42D002007
:10C3B00086B001900091019B53E8011F8AB2D88991
:10C3C00002449889824228BF121A1889824202BF09
:10C3D000BFF32F8F002307E0C2EA010243E80120E8
:10C3E0000028E9D14FF001038DF80F30059002913C
:10C3F0000492029A009B1A609DF80F30DBB2184637
:10C4000006B0704784B00190019951E8013FC3EA3A
:10C41000034341E80132002AF7D10392029300BF9F
:10C4200004B0704786B001900091019B53E8021F51
:10C430001FFAA1F2D888824202BFBFF32F8F0023D8
:10C440000DE0D88902449889824228BF121AC1EAB5
:10C45000024243E802200028E8D14FF001038DF8A2
:10C460000F30059002910492029A009B1A609DF889
:10C470000F30DBB2184606B0704784B001900199C6
:10C4800051E8023FC3EA234341E80232002AF7D1D0
:10C490000392029300BF04B0704786B00190019BE5
:10C4A00053E8021FDA88B1EB314F4FF0000017BF9D
:10C4B00089B242EA024241EA024204E05968B1EB21
:10C4C000314F08BF012043E802210029E8D18DF84F
:10C4D0000F00059104929DF80F30DBB2184606B0AC
:10C4E000704784B00390029111461A460B46ADF88E
:10C4F00006301346ADF80430029B002B01D10E2309
:10C500001FE0BDF80630BDF80420B3FBF2F102FBDA
:10C5100001F29B1A9BB2002B01D0092311E0039B6F
:10C52000029A1A60039B00225A60039B00229A60C1
:10C53000039BBDF806209A81039BBDF80420DA8195
:10C540000023184604B0704700B585B001900198EB
:10C55000FFF7A3FF03468DF80F309DF80F30002B37
:10C5600001D0002300E01123184605B05DF804FB5C
:10C5700000B585B001900091009B19460198FFF726
:10C5800017FF0346002B07D0019B1B68009A1288F7
:10C5900013440393039B00E00023184605B05DF8A5
:10C5A00004FB00B583B001900091009B1A88009BAA
:10C5B0005B889A4204D10198FFF724FF012300E031
:10C5C0000023184603B05DF804FB00B585B0019068
:10C5D0000091009B19460198FFF724FF0346002BAA
:10C5E00007D0019B1B68009A528813440393039B56
:10C5F00000E00023184605B05DF804FB00B583B0E9
:10C6000001900091009B1A88009B5B889A4204D19C
:10C610000198FFF732FF012300E00023184603B022
:10C620005DF804FB00B585B001900091009B5B09AB
:10C630009B00019A1A44009B03F01F03012101FA99
:10C6400003F31946104600F0D8F8039000BF05B078
:10C650005DF804FB00B583B001900091009B5B097D
:10C660009B00019A1A44009B03F01F03012101FA69
:10C6700003F31946104600F0A8F80246009B03F0A9
:10C680001F0322FA03F303F00103002B14BF01235D
:10C690000023DBB2184603B05DF804FB00B585B09B
:10C6A00001900091009B5B099B00019A1A44009B3A
:10C6B00003F01F03012101FA03F3DB43194610467F
:10C6C00000F0CBF8039000BF05B05DF804FB82B02A
:10C6D00001900091009B5B099B00019A13441A682A
:10C6E000009B03F01F0322FA03F303F00103002B66
:10C6F00014BF01230023DBB2184602B0704700B517
:10C700008BB001900091002309933BE0099B9B00B3
:10C71000019A13441B68DB430693069B93FAA3F329
:10C720000593059BB3FA83F3089323E0099B5B0110
:10C73000089A13440793079A009B9A421ED20799BE
:10C740000198FFF787FF034683F00103DBB2002B5C
:10C7500001D0079B1EE0099B9B00019A13441B68B4
:10C76000DB430493049B93FAA3F30393039BB3FA71
:10C7700083F30893089B1F2BD8D900E000BF099BC7
:10C7800001330993009B013B5B090133099A9A42EB
:10C79000BCD3009B18460BB05DF804FB10B487B007
:10C7A00001900091019B009A53E8004F104643E826
:10C7B000000191F0000FF7D1059404900391059BBF
:10C7C000184607B05DF8044B704710B487B001906D
:10C7D0000091019B009A53E8004F44EA020043E8AD
:10C7E000000191F0000FF6D1059404900391059B90
:10C7F000184607B05DF8044B704710B487B001903D
:10C800000091019B009A53E8004F44EA020043E87C
:10C81000000191F0000FF6D1059404900391049B60
:10C82000184607B05DF8044B704710B487B001900C
:10C830000091019B009A53E8004F04EA020043E88C
:10C84000000191F0000FF6D1059404900391059B2F
:10C85000184607B05DF8044B704710B487B00190DC
:10C860000091019B009A53E8004F04EA020043E85C
:10C87000000191F0000FF6D1059404900391049B00
:10C88000184607B05DF8044B704710B487B00190AC
:10C890000091019B009A53E8004F04EB020043E82B
:10C8A000000191F0000FF6D1059404900391059BCF
:10C8B000184607B05DF8044B704710B487B001907C
:10C8C0000091019B009A53E8004F04EB020043E8FB
:10C8D000000191F0000FF6D1059404900391049BA0
:10C8E000184607B05DF8044B704710B487B001904C
:10C8F0000091019B009A53E8004FA4EB020043E82B
:10C90000000191F0000FF6D1059404900391049B6F
:10C91000184607B05DF8044B704700B583B001902E
:10C9200001210198FFF751FF0346184603B05DF857
:10C9300004FB00B583B0019001210198FFF75DFF72
:10C940000346184603B05DF804FB00B583B00190C0
:10C9500000210198FFF769FF0346184603B05DF810
:10C9600004FB000000B583B001900B468DF8033046
:10C97000019B002B03D10849E82006F083FB019BB3
:10C98000DA689DF803300199098A01FB03F3134427
:10C99000184603B05DF804FB7814040000B583B0BA
:10C9A00001900091019B002B03D10849F52006F06E
:10C9B00069FB009B019AD2689B1A019A128AB3FB09
:10C9C000F2F3DBB2184603B05DF804FB7814040000
:10C9D00000B585B00190019B002B01D10E234CE0E6
:10C9E000019B1B68002B03D12649FF2006F04AFB60
:10C9F000019B5B68002B04D122494FF4807006F044
:10CA000041FB019B9B68002B04D11E4940F20110A1
:10CA100006F038FB019BDB68002B04D119494FF469
:10CA2000817006F02FFB019B1B8A002B04D1154956
:10CA300040F2031006F026FB019B9A68019B5B689D
:10CA4000D31A8DF80F30019B1B68019A52681A6047
:10CA500007E0019B1A681368591C11609DF80F20AC
:10CA60001A709DF80F305A1E8DF80F20002BF0D150
:10CA7000019B1B6800221A710023184605B05DF85F
:10CA800004FB00BF7814040000B585B00190019B41
:10CA9000002B04D11F494FF4927006F0F3FA0023E3
:10CAA000039300238DF80A300DF10A031846FDF7B1
:10CAB000EDF8019B1B681A68019B5B689A421FD9BD
:10CAC000019B1B681A68013A1A601B681B7819469B
:10CAD0000198FFF747FF0390019B9A68019B1B6831
