:020000022000DC
:1070000000000420757302005D7302005F730200CC
:1070100061730200637302006573020000000000E8
:107020000000000000000000000000006773020084
:1070300069730200000000006B7302006D730200B0
:107040003DAD02006F730200F5B102006F730200E4
:107050006F7302006F73020049B002006F73020089
:107060006F7302006F7302006F7302006F73020090
:107070006F7302006F7302006F7302006F73020080
:107080006F730200D18802006F7302006F730200F9
:107090006F7302006F730200DD2603006F7302003E
:1070A0006F7302006F7302006F7302006F73020050
:1070B0006F7302006F730200000000000000000008
:1070C0006F7302006F7302006F7302006F73020030
:1070D0006F7302006F7302006F7302006F73020020
:1070E0006F7302006F7302006F73020000000000F4
:1070F000000000006F730200000000006F730200C8
:10710000000000000000000000000000000000007F
:10711000000000000000000000000000000000006F
:10712000000000000000000000000000000000005F
:10713000000000000000000000000000000000004F
:10714000000000000000000000000000000000003F
:10715000000000000000000000000000000000002F
:10716000000000000000000000000000000000001F
:10717000000000000000000000000000000000000F
:1071800000000000000000000000000000000000FF
:1071900000000000000000000000000000000000EF
:1071A00000000000000000000000000000000000DF
:1071B00000000000000000000000000000000000CF
:1071C00000000000000000000000000000000000BF
:1071D00000000000000000000000000000000000AF
:1071E000000000000000000000000000000000009F
:1071F000000000000000000000000000000000008F
:10720000354936480A1A02D0072291438D4634493F
:1072100034480A1A06D00722914381F309880222D2
:1072200082F3148830483149314A00F044F831483B
:107230003149324A00F03FF831483249324A00F0D1
:107240003AF832483249334A00F035F83248334987
:10725000334A00F030F833483349344A00F02BF811
:1072600033483449344A00F026F83448344900227F
:1072700000F02CF833483449002200F027F8334856
:107280003349091A082902DB002202604160314AB1
:1072900090471F481F49884205D00268043003B454
:1072A000904703BCF7E700208646EC46002000210B
:1072B000294A9047FEE7884207D0521A05D0037842
:1072C00001300B700131013AF9D17047884202D088
:1072D00002700130FAE770470000042000E003204C
:1072E00000000420000004206454030074220020E5
:1072F000F8240020D0730200D0730200982C030001
:10730000645403007422002074220020282E0300FD
:10731000282E0300282E0300282E0300282E030009
:10732000282E0300282E0300282E03006254030099
:10733000E8560300F8240020F8240020F824002058
:10734000623900206439002064390020643900204B
:10735000645900209D730200C9C50200FEE7FEE7E4
:10736000FEE7FEE7FEE7FEE7FEE7FEE7FEE7FEE7F5
:1073700000F002B8FFF7FCBF0F484FF00701884349
:1073800085460E4880470E48016841F4700101604F
:10739000BFF34F8FBFF36F8FFFF732BF09480A4922
:1073A0000A4A884207D0521A05D0037801300B7080
:1073B0000131013AF9D1704700000420B5A702005D
:1073C00088ED00E0142E03006022002074220020CB
:1073D000F0B595B01D46164608460C4603F0D4F8A5
:1073E0001A9B0D93CDE9086500252B46082205A9B7
:1073F00020460A958DF82C500C9503F0E2F8079B77
:107400000293069B03939DF814308DF8115003F0FE
:107410000302012A1DD1BDF81420059DC3F3C20348
:10742000C2F383168DF81030B20008230EA920464F
:1074300003F0C7F8C5F3952508AB0093324602ABBD
:107440000EA9284600F0F2FB204603F0A1F815B083
:10745000F0BD022AF8D1BDF81650C3F3C203C5F33C
:1074600089158DF810300827082D2E4628BF0826CC
:107470003B4632460EA9204603F0A3F8AD1B08ABED
:1074800002AA31460EA8374400F034FC002DEBD19F
:10749000DAE70000014B01221A70704739250020FD
:1074A0007047000070B5124D06460FCD88B06C468F
:1074B0000FC495E80F00002E84E80F004FF0FF3353
:1074C0004FF00602CDE90023CDE90233094A0A480C
:1074D0004FF0EB7308BF00226946069303F0C6FB2A
:1074E00008B100F0CFFD054B1E7008B070BD00BFA5
:1074F000282E03009574020074220020F824002036
:1075000007B5044B0093044A4023FFF761FF03B023
:107510005DF804FB1D750200F924002038B50D4B01
:107520000D4D002018700D4804782D5DD2B21C4618
:1075300065B1043004F0ECFA08B100F0A3FD084B8B
:107540001A7812B12378002BFBD038BD0C3004F030
:107550009BF8F1E739250020E02D0020742200205F
:10756000F824002008B50848084A0378D35C3BB1EA
:10757000043004F067FABDE808400020FFF792BF2E
:107580000C3004F02DF8F6E774220020E02D0020E6
:107590000120FFF787BF000008B5FFF7F9FF044897
:1075A000042100F0ABFA034B01225A7108BD00BF61
:1075B000042E030088220020037813F0040216D062
:1075C00003F00303012B03D0022B09D001207047E5
:1075D0000A6800880232C0F3831002440A60F5E7AB
:1075E0000B684288023303EB92130B60EEE7104600
:1075F000704700002DE9F04F87B000230446861C39
:107600000DF107000F4615468DF8073000F0F0FF2A
:10761000454801683960D0E90132134401335B1AEF
:10762000824600F21C4700F5836900F21448B34219
:107630001CD30020002D73D004F00F039B0143F0F6
:10764000050363F30F00DAF80020DAF8083013407E
:10765000033316444AF823009DF80700CAF8006077
:1076600000F0EAFF012007B0BDE8F08F01213846A5
:1076700002F0F6F9484602F00EFA404602F00BFA24
:10768000DAF80400DAF808B0029000EA0B000330E0
:107690000AEB800002A9FFF78FFF029B50BB0BEAA9
:1076A00003020AEB820203F1020CD2680392013357
:1076B00003EA0B0B0AEB8B0B02F00302012ADBF847
:1076C0000C10CDF808C023D0022A16D083464046BD
:1076D00002F0E4F910B1029BCAF80430594638466A
:1076E00002F0BEF9DAE901231344DAF8002001338D
:1076F0009B1A9CE70BEA0300C9E7BDF80E30C3F301
:10770000891303334FEA114B0CEB93030293DEE72B
:10771000BDF80C30C3F383134FEA114B6344F5E714
:10772000A40544F006008EE70C2600200B4B0C4805
:10773000FF2210B59A600022C3F81824C3E9002282
:10774000C3F8142483F8202402F0D7FE044610B9AD
:10775000044802F07FFF204610BD00BF0C26002029
:10776000202D03007C2E030030B50A4C71B10A4A6B
:107770000A49121BD20800239A4201D1002030BDD1
:1077800031F82350854202D00133F5E7034654F81F
:107790003300F4E7342D0300042E0300742200208C
:1077A000094B013903EBC000032909D8DFE801F0D8
:1077B0000A02040604207047007970474079704738
:1077C0000020704702207047342D0300034BD3E99B
:1077D0000030C31A58425841704700BF0C260020A1
:1077E0002DE9F04387B0FFF7F1FF0646002840F08F
:1077F000F9807D4DC5F81804BFF34F8F6B68AC68F6
:1078000002932340033305EB830002A9FFF7D4FE64
:10781000029B18B1D5F81824002A5FD004EA0302AD
:10782000991C013305EB8202234005EB8303D268E8
:10783000DB68049302F00303022B0392029160D1F0
:10784000BDF80E306948C3F38917502FB84628BFDA
:107850004FF0500868F38F1308F10801ADF80E30AF
:1078600002F063FE0646002800F0A78002F08CFEBE
:107870000023082203A9304602F099FE029924EA67
:1078800001020132B8EB820F4FEA820332D95FFA6C
:1078900088F85BB32140DCB2A8EB040803315FFA3F
:1078A00088F9A046524C05EB810108234246304638
:1078B00002F07DFE34B108F108034A462146304605
:1078C00002F075FE029B033703EB97070297D5F88A
:1078D0001834002B49D1D5F8104459E02A689A424F
:1078E0008FD86A60304607B0BDE8F08340491C4637
:1078F0009946DAE70C40E11C0823424605EB81017A
:10790000DDE7012B59D1BDF80C303848C3F38311A2
:10791000062928BF062161F3891302318900ADF8D9
:107920000C3002F002FE0646002846D002F02CFE83
:107930000023082203A9304602F039FE0027BDF8D3
:107940000C20C2F38312BB00974203F10803BED29E
:1079500002994A1C21400331029205EB8101042265
:10796000304602F024FE0137E9E7304602F010FE0F
:10797000FFF72CFF80F00100C6B2B3E7E3685B7944
:1079800023B1236831461B6820469847E3681C688A
:10799000002CF3D1304602F0FBFD0DF107008DF80D
:1079A000074000F025FED5F818340BB9029B6B6038
:1079B0009DF8070000F040FEDAE7D5F8104454B90E
:1079C0000C4B0D480D49C01AC008000440F00200DD
:1079D00000F062F8CCE7236820469B689847E3688C
:1079E0001C68ECE700267DE70C260020202D030014
:1079F00018260020342D03005C2D0300652E0300A3
:107A00002DE9F74F224D04460F46924601A9012267
:107A10001846D5F808909B46FFF7ECFD20B3019E71
:107A20004FF00008B21CD84508EB020126D11948D6
:107A3000002101F0CEFF80F31000000440EA144062
:107A4000E400731C04F0380403EA090306EA09069B
:107A500044F0010405EB8303033644EA881444EA46
:107A60008724D86045F8264095F820341BB1FFF7ED
:107A7000B7FE0028FBD103B0BDE8F08F09EA010191
:107A800005EB81015AF82830CB6008F10108CAE7FC
:107A90000C260020282A002000231A46FFF7B0BF3A
:107AA00007B50123019201AAFFF7AAFF03B05DF811
:107AB00004FB07B5CDE9002302236A46FFF7A0FFC8
:107AC00003B05DF804FB1FB5CDE90123069B0393CA
:107AD00001AA0323FFF794FF05B05DF804FB1FB56F
:107AE000CDE90023069B0293079B03936A46042378
:107AF000FFF786FF05B05DF804FB000030B50F49C5
:107B0000D1F8102403460020144634B9DC682071F3
:107B10004AB9C1F81034226030BDE4682579854245
:107B200006D02468F1E7D268116821601360F3E79A
:107B300001300A28E8D14FF0FF30EDE70C26002095
:107B4000094A38B50123D2F8104482F820341D4682
:107B500004B938BDE3685D71236820465B689847C7
:107B6000E3681C68F4E700BF0C26002007B5034655
:107B70000846197A052911D05B7A2BB1094A0A49BE
:107B8000019001F0EEFF01980849019001F0E9FF32
:107B9000019803B05DF804EB01F0D8BF002AF8D0DB
:107BA000F2E700BF882E03007F470300AA2E0300E0
:107BB00030B5C38885B004460D4633B1144A0092EF
:107BC0001449154A284601F0CCFF217A05291DD019
:107BD000637A4BB1A088FFF7E3FD104B104953F8CF
:107BE0002020284601F0BDFF227A0E4BA08853F8D2
:107BF000222003920021FFF7B7FD039A0A490346AA
:107C0000284605B0BDE8304001F0ABBF05B030BD3F
:107C1000882E0300952E03008D2E0300142F0300E1
:107C20007F470300382F0300AD2E03002DE9F043FA
:107C300085B01F460C9D002395F80C902B730646CB
:107C40000C46904629463846FFF7B2FFB8F1060FBA
:107C500009D8DFE808F00412181F28334000314625
:107C6000284601F07EFF002229463846FFF77EFFB6
:107C700085F80C9005B0BDE8F083226831462846AF
:107C800001F06FFFEFE7D4E900233146284601F009
:107C900068FFE8E7A36800933146D4E9002328464B
:107CA00001F05FFFDFE7E3680193A36800933146CB
:107CB000D4E90023284601F054FFD4E72369029356
:107CC000E3680193A36800933146D4E90023284672
:107CD00001F047FFC7E76369039323690293E368F1
:107CE0000193A36800933146D4E90023284601F0AC
:107CF00038FFB8E708292DE9F74F80460E461746AA
:107D00001C463CD8002593F80C901D73194610466C
:107D1000FFF74EFFDFF888A0DFF888B0AE4231D918
:107D200018F805205946204601F01BFF0135082DA3
:107D3000F4D11949194DDFF870A0204601F011FF68
:107D40004FF0000B5E4522D918F80B207E2A05D88B
:107D5000104601920AF0DCFE019A00B92E2251462B
:107D6000204601F0FEFE0BF1010BBBF1080FE9D13B
:107D7000012221463846FFF7F9FE84F80C9003B043
:107D8000BDE8F08F5146204601F0EBFECEE72946D4
:107D9000204601F0E6FEE6E7C12E0300BF2E0300F9
:107DA000BD2E0300B72E0300C32E0300C30710B57A
:107DB00007D4F023054A4008145C234019431154AA
:107DC00010BD0901C9B20F23F4E700BFF82A002053
:107DD00030B5094B1C78094B196800239C4202DC22
:107DE0000022104630BD11F83350854201EBC3022A
:107DF000F7D00133F2E700BFC82A0020182B00207B
:107E000013B504460191FFF7E3FF38B143682BB186
:107E10000199204602B0BDE81040184702B010BDDD
:107E2000034B044819680022490800F0F0BA00BF6B
:107E3000CC2A0020D02A002010B5C0B2FFF7C8FF1E
:107E40000446007803F0F2F863785A1E5342534117
:107E5000834208D1044BD3E90023134303D1BDE887
:107E60001040FFF7DDBF10BDF02A002037B54308F2
:107E7000354AD35CC2074CBF1B0903F00F0304460D
:107E80000D46042B35D8DFE803F003252C383C00E1
:107E900079B30121FFF78AFF00230DF107008DF868
:107EA000073000F0A5FB0120A4F12003C4F120015C
:107EB000264A20FA01F100FA03F30B43A040D2E96D
:107EC000004120430B43C2E900039DF8070000F086
:107ED000B3FB0EE0002918BF02212046FFF766FF22
:107EE00007E041B10321FFF761FF01212046FFF7C1
:107EF00087FF03B030BD0121EFE70029F9D104214C
:107F0000EBE709B10321E8E7FFF750FF29462046D8
:107F1000FFF776FF0DF107008DF8075000F068FBC2
:107F20000120A4F12003C4F12001084A20FA01F144
:107F300000FA03F30B43A040D2E9004124EA000019
:107F400021EA0303BFE700BFF82A0020F02A00203F
:107F50002DE9F041124E134F00243378A34208DC80
:107F6000114BD3E90023134318D0BDE8F041FFF7CC
:107F700057BF3D6805EBC40815F8340003F056F808
:107F800098F801305A1E53425341181A4142414158
:107F900015F83400FFF76AFF0134DEE7BDE8F08131
:107FA000C82A0020182B0020F02A0020092AF7B543
:107FB00005460C4616463CD902F068FFD8B11E4B68
:107FC0001E481D601E4B1F4F1C701F4B002120229E
:107FD0001E600AF0FEFD1D4B00200021C3E90001D8
:107FE000013CE4B20326FF2C0BD1194A19480021A9
:107FF00000F002FA03E002F011FF0028DFD003B026
:10800000F0BD9DF8063015F834008DF8046005EBDE
:10801000C40223F007038DF8063001A993788DF888
:1080200005303A4602F03CFF013CE4B20028DAD0C9
:10803000E5E70720E3E700BF182B0020F82A00201F
:10804000C82A0020397E0200CC2A0020F02A002015
:10805000517F0200582F030070B5084D084E0024D0
:108060002B789C4201D3002070BD3368012113F8A6
:10807000340002F091FF0134F2E700BFC82A00206B
:10808000182B00201FB50021039001AA44F2010023
:10809000CDE9011100F004F805B05DF804FB000023
:1080A00010B572B6FFF74CFDFFF79AFB0028FBD125
:1080B000104B114C1149E41AE408240444F0010067
:1080C000FFF7EAFC0E4B1B68DB0700D500BE0D492D
:1080D00044F00200FFF7E0FCBFF34F8F0A490B4B5F
:1080E000CA6802F4E0621343CB60BFF34F8F00BF56
:1080F000FDE700BF342D03005C2D03005C2F03005F
:10810000F0ED00E0682F030000ED00E00400FA0548
:108110004B1C30B5DB00044612F003009BB20DD1BE
:10812000074D2A601A44074B1A60074B1870074B1B
:108130001870074B1C80074B198030BD0720FCE7E7
:10814000242B0020202B00201C2B00202C2B002077
:10815000282B00202A2B00202DE9F3472B4F3B88AA
:108160008B4206460D4690464BD300240DF1070086
:108170008DF8074000F03CFA254B26481A78264B2C
:10818000008893F800C084455FFA8CF138BF4C1C1E
:10819000D2B238BFE4B2A2422DD01C781A78D1B244
:1081A000904286BF0131C9B2002119709DF80700C5
:1081B00000F042FA4FF6FF739C4224D0DFF8609043
:1081C000D9F800204FEAC40A42F8348002EBC40315
:1081D000A6B19DB1114B38881B682A4604FB0030BC
:1081E00031460AF0CDFCD9F80030534400209D8080
:1081F00002B0BDE8F0874FF6FF74D7E70020988003
:10820000F6E70920F4E70420F2E700BF282B00205E
:108210002C2B00202A2B00201C2B0020202B0020A0
:10822000242B0020F8B5114C114D264622782B78CE
:108230009A4200D1F8BD0F480F4A23781268078888
:108240000E4802EBC301006852F83320898803FB13
:10825000070090470A4922780988D3B2914286BF25
:108260000133DBB200233370E0E700BF2C2B00208A
:108270001C2B0020282B0020242B0020202B00204A
:108280002A2B0020D0E90223D1E90201994208BF3C
:1082900090422CBF012000207047D0E900301847E1
:1082A00008B50B4800F0FFFA0A4B0B49D3E900234D
:1082B0001218D1E9000143F100038B4208BF82424A
:1082C00003D212F1807243F100031046194608BD33
:1082D00090220020382B0020B02B002037B5054617
:1082E0000C460A4801A901F0A8FA60B10570446083
:1082F00001A9064801F0CBFA18B1054800F0D8FAF8
:10830000002003B030BD0420FBE700BF9C2B002001
:10831000902200201C4B37B51D78044675B380B3FE
:10832000037F03F0FF054BB3FFF7BAFFD4E9022345
:10833000994208BF90421BD3236903B9237763692D
:108340000093124AA369019308216846FFF704FFCE
:1083500008B1FFF797FE216979B1237F03F0FF058C
:1083600063B1D4E90223521843F10003C4E90223A4
:108370000748214602F08DF900E00D46284603B07B
:1083800030BD0546FAE700BF402B00209B8202006B
:10839000842F030013B5114B11491868019008236D
:1083A0001048582201F014FA044698B90E4A0F48B2
:1083B00001A900F065F9044660B90C48012100F0FC
:1083C00055FA01230A4A0948194600F0B7F9094B42
:1083D00001221A70204602B010BD00BF802F03009A
:1083E000442B00209C2B0020598402009022002066
:1083F000FFFF7F00402B00203AB103685A614A1EFC
:10840000514251411961002070470720704738B52B
:10841000037F04460D4683B98261FFF741FF23695C
:10842000401941F10001C4E9020103B1256121466F
:108430000020BDE83840FFF751BF002038BD0023C1
:10844000014603770120FFF749BF0000014800F013
:108450002ABA00BF902200202DE9F04F85B0804657
:1084600000F00CFA40B15A4AD2E9003113F180739E
:1084700041F10001C2E900310021404600F00DFA4F
:1084800038B1544E336823B13068FFF743FF0023FF
:1084900033600121404600F000FA20B1FFF700FFF1
:1084A0004D4BC3E900014D484A4F4D4EDFF838911E
:1084B00003A901F0FCF9002845D1DFF82491454ECD
:1084C000DFF828A1484602F0FAF83368002875D092
:1084D0007BB13368D0E90201D3E90223994208BF96
:1084E00090422DD233681B7F1BB13168484602F0A1
:1084F000D0F8484602F0DDF8D0E902B30746019310
:10850000FFF7CEFE019BBBEB000463EB0105012CE2
:1085100075F1000345DBB4F5350F40D3FFF796FF47
:10852000304A02444FF496030021504600F026F9E9
:1085300000283ED1336813B9404600F0F7F83760A1
:1085400005B0BDE8F08F0378012B1DD0022B09D1B7
:108550004FF0000A304602F0ACF8002834D080F822
:108560001CA0F7E73BB941680B7F23B901230B77C8
:10857000304602F08EF803A9184801F0C3F903A9A8
:10858000164801F094F996E741683B68994202D198
:1085900000233B60EFE7304602F094F8EBE7BA685F
:1085A000C0E70021504600F06EF93846FFF7B2FEF2
:1085B00001E00D28F9D00023336083E7002BBFD101
:1085C000404600F0B7F8BBE7012389F80030D2E756
:1085D000382B0020B82B0020B02B00209C2B002033
:1085E000842F0300FFFFB400402B002090220020C6
:1085F00070B5EFF3108672B60C4A946801239CB9EB
:1086000093600B4B0B4DD3F8801029401160C3F8D9
:108610008050D3F8841051604FF0FF32C3F88420AB
:10862000047006B962B670BD0370FAE7BC2B002077
:1086300000E100E0FC06FFBD084B9A6810B55AB196
:1086400050B9EFF3108172B6054A1C6814605C687B
:108650005460986001B962B610BD00BFBC2B002009
:1086600000E100E0435882B03BB10023435043583F
:108670000193019B012002B070471846FBE7000000
:10868000F8B5224B4679224C43F82620214A224B4A
:108690009B1A04EBC602DB0812791B04F70032B107
:1086A00043F002001D49FFF7F7F90820F8BD026802
:1086B0000D88C2F8085590F9045002798978002D88
:1086C000ADBF05F1604CDFF85CC002F00F0E0CF599
:1086D000614C4FEA4111C9B2B4BF0CF80E108CF8CE
:1086E00000136D090121DFF840C002F01F0201FAFA
:1086F00002F24CF82520E21944F83600117143F0DB
:1087000003000749FFF7C8F90020CFE7D02B00206E
:10871000C82B0020342D03006C2D0300902F030084
:10872000B22F030014ED00E000E100E00368012235
:108730001A607047036801225A60704773B501F1EF
:108740005005AD000068ADB24FF480348C40002677
:10875000C0F80843C0F84843465101F5A87145598F
:10876000019522F07F42019D40F82120C0F844434A
:108770000BB1C0F8044302B070BD00002DE9F74F03
:108780000D4622F07F4402684FF4803705F1500611
:108790008F408046B60002EB8500C2F84873B6B23F
:1087A000C2F80873D2F8041599464FF0000BD0F8C0
:1087B0004035C0F8401542F806B05B1A9259009255
:1087C00023F07F43012B009A4FEA850A0CD1264BF8
:1087D0004FF4806043F001039847D8F8003043F825
:1087E00006B09B590193019BD8F80010D1F804659D
:1087F000C1F84473A31B23F07F43012B1CD11A4BF8
:1088000005F5A875013443F0010341F825404FF404
:1088100080609847D8F80030D3F804359E4209D1DB
:10882000D8F800300020C3F84473C3F8047303B0D1
:10883000BDE8F08F0D20FAE78A44C9F1FF13CAF8AA
:108840004045D1F80405221A013A22F07F4203F58F
:108850007F439342EED3002AE2D10134CAF8404567
:10886000D1F804359842DAE7D02F030003680222DA
:10887000C3F8442309B1C3F80423704700684FF4D8
:108880008271FFF7EFBE4FF4803303FA01F1036802
:10889000C3F84813C3F808137047503189000068C3
:1088A00089B2FFF7DFBE0368D3F804057047000004
:1088B00090F9043001215A0903F01F0301FA03F370
:1088C0004032024941F82230704700BF00E100E029
:1088D000024B034A1B681068184700BFD02B0020CA
:1088E000C82B002070B5064D0646002455F8043B01
:1088F0000BB1304698470134042CF7D170BD00BF4E
:10890000E02B0020033080B240F2FE33984230B5B5
:108910001FD8134B1A783AB91C895D892C4404443A
:10892000A4B2B4F5806F0AD91A7DAAB99A8BDC8BF0
:108930002244024492B2B2F5806F0DD801220A801F
:108940001446142202FB04335A8910445881002033
:1089500030BD48F20860FBE748F20660F8E700BF68
:10896000142C00200B4A0C4B5188142000FB0131C1
:10897000CB6833B90420496810700122074801F020
:1089800085BB07490523137002238B8001220968E8
:108990000023F3E7F82B0020142C00206022002095
:1089A000DC2C002007B5002305490093054A09681F
:1089B0000548082301F0D4FA03B05DF804FB00BFBA
:1089C000DC2C0020E42F03006022002007B50023E8
:1089D00001460093034A0448082301F0C1FA03B09A
:1089E0005DF804FBDC2F03006022002013B5002398
:1089F0000C4600930146084A0848042301F0B0FAE7
:108A000038B90749142303FB04140123237402B06B
:108A100010BD48F20D60FAE7D82F03006022002055
:108A2000142C002037B50A480A4B42689C88196804
:108A300053880325033305709BB2002000909B00F0
:108A400001EB8401044801F08BFA03B030BD00BF94
:108A5000F82B0020DC2C00206022002010B50146FD
:108A6000044800F0EAFE1C22044600210AF0B1F896
:108A7000204610BDC82C002068B10268084B9A42FD
:108A800009D14068074B984207D00133984214BF80
:108A9000032001207047032070470020704700BF6B
:108AA000DEC0ADDEFE011EF14388033300EB83031D
:108AB00099420BD382884FF6FF739A4208D00388FD
:108AC00033B18068431C58425841704702207047B8
:108AD000012070472DE9F0410D460223154F2B80F0
:108AE000164600F5805100F108044FF001088C4251
:108AF0000ED2236801330BD02046FFF7D5FF48B1D3
:108B00000EB186F80080022809D14FF480632B80D3
:108B1000BDE8F081A3683A68934200D93B602B8896
:108B20006288033313442B806388033304EB83048C
:108B3000DDE700BF0C2C002038B5144B14220D4685
:108B400002FB00302B68446804F58051A3B15C88B7
:108B5000033403EB84048C4215D22368013312D012
:108B60002046FFF7A1FF012808D002280BD00028DB
:108B7000F1D12C60012038BD0834ECE76388033361
:108B800004EB8304E7E70020F5E700BF142C002086
:108B9000426873B504460D466AB3244BD9688A42CD
:108BA00029D31B699A4226D812F0030323D1204906
:108BB0000089098988421ED12068916888421AD1AB
:108BC0001C494868824203D900F5805082420DD387
:108BD00089698A420CD901F580518A4208D2012262
:108BE0002A80B3FA83F0400902B070BD1A46F7E755
:108BF00048F20963F5E700232B801E46019628887A
:108C000001A9FFF799FF30B92B8801339BB2012BE3
:108C10002B80F3D9E8E7019B226899689142EED155
:108C20006360034B1B892381DEE700BF60220020C5
:108C3000F82B0020142C00202DE9F8431C461D4B76
:108C40001B7806460F46154673B382B37CB3DFF834
:108C50006C804FF01409A388012B02D948F20960F7
:108C600020E009FB03F318F803302BB9A088214654
:108C7000FFF762FF20B92060A3880133A380EAE7F1
:108C800023681EB1998832889142EFD11FB11988AB
:108C90003A889142EAD19A68C5E90023064B1B89BC
:108CA0002B810020BDE8F88348F20160FAE748F222
:108CB0000460F7E7F02B0020F82B0020142C002094
:108CC00008B5074B5888191DFFF736FF18B1BDE8E6
:108CD0000840FFF7A7BEBDE80840FFF743BE00BF4E
:108CE000F82B00202DE9F04FA44FDFF8B49289B0A3
:108CF0000646B8463B6823B9A148494600F0D7FD6F
:108D00003860D8F8005029784B1E052B07D8DFE8CB
:108D100013F022007C007C000E010E01660148F277
:108D20000E641422002103A809F053FF41F61D53DD
:108D30009C4208BF0024D8F8003004941A78013A05
:108D4000052A00F2F681DFE812F0E201E6010602F0
:108D5000160222022C022EB18A4B00225A604FF4D6
:108D60000644DEE72B79032B1DD8DFE803F015025C
:108D70002B3685490B78022B08461AD00B7D022B27
:108D80004FF0010317D114225343C2180020C854D6
:108D90005068FFF71BFE03E001232B71FFF702FE73
:108DA000002800F0BE80774B00225A6048F20D6424
:108DB000B7E70023E7E7734A13700023536041F6D7
:108DC0001D54AEE771497248002302222B718A803C
:108DD0000968012201F05AF9E2E76C4C00262E7175
:108DE0002068694DFFF7F2FD6A4BD4F800C05A883D
:108DF00014235343EA18EE5451682160A188C2F845
:108E000004C011810222A280CAE7B5F814A0AA7D8D
:108E1000DFF874B1AEB1022AEB8806D9142101FB48
:108E20000AB1DA1C088902440A81142202FB0ABA38
:108E3000C3F57F43BAF80A20FD331344AAF80A3079
:108E40008DE7142303FB0AB318895C6804EB8004E4
:108E5000062A69D8DFE802F0274E36441D5A04007E
:108E600041F61D54AA7DEB88022A06D9142101FB84
:108E70000AB1DA1C088902440A81142202FB0ABAE8
:108E8000C3F57F43BAF80A20FD331344AAF80A3029
:108E900047E74148414900234360AB690360FFF75E
:108EA00077FE00285BD00223AB75002300930423D8
:108EB000EA182146364801F053F8002831D048F22C
:108EC0000D64CFE72B69002B14BF03230123AB757F
:108ED0000023009305F10C02042304F10801E9E7E3
:108EE0000123AB750022EB8800922A699B0004F1F4
:108EF0000C01DFE703290CBF05230623AB75002314
:108F00000093042305F10802E118D3E70623AB75AB
:108F1000224B1988204B5868FFF768FD044600284B
:108F2000A0D109B0BDE8F08F48F20E649AE7002E98
:108F30007FF415AF2B79012B34D0022B3FF43FAFD8
:108F4000002B7FF4ECAE02232B710DF10A01EB68CC
:108F5000039303A8CDE90466FFF71AFE10B948F29F
:108F60000964DEE60498BDF80A108388EB80038864
:108F70002B81FFF73BFD044627E000BF102C0020AB
:108F8000C82C0020F02B0020142C0020DC2C00200A
:108F900060220020F82B0020D42B0020E82C002099
:108FA000082C0020804B03AA3146A81DFFF744FE81
:108FB0007D4B044668B999880498FFF717FD04466D
:108FC00048F209639C423FF4FAAE002C7FF4A9AE4C
:108FD000A7E708223146184609F0FBFDF0E7002E0E
:108FE0007FF4BDAE714B1A7BB2B11E731A78013A91
:108FF000062A3FF694AE01A151F822F0A390020098
:10900000C9900200E7900200ED9002001F8D02005F
:10901000F3900200059102001A78072AE6D801A110
:1090200051F822F045900200ED8F0200ED8F020012
:109030006B9002007F9002009F9002009F900200C0
:10904000679002001A895A4901321A8100225A8017
:109050001A730A78B2FA82F252099A720A7DB2FA47
:1090600082F25209DA72012207E0524958688A886E
:109070004088033202448A8002221A70B6E74C4CC0
:109080005A884C49142505FB024208685468506010
:109090008888108102228A800C600622EDE7072270
:1090A000EBE79A7A32B9DA7A8AB900221A705A80D2
:1090B0005A6084E63E4900229A72CA68002AF2D1B8
:1090C000097C0029EFD05A80FFF7FAFD53E7002210
:1090D000DA72374A116A0029E7D192F82420002A6F
:1090E000E3D00122EFE7FFF79DFC44E7FFF73AFCEE
:1090F00041E72F4A5B88142101FB03235868FFF7DF
:1091000065FC38E700225A60FFF74CFC33E7002388
:109110008DF80C300DE001228DF80C201A89ADF885
:1091200018209A88DB680593ADF81A2000238DF883
:109130001C3003A8FFF7D6FB002649461E48C8F896
:10914000006000F0DFFB1D48012100F095FC0028C5
:109150007FF4D0ADE5E602228DF80C201A89ADF837
:1091600018209A88ADF81A20DA689B7D05929A1F1C
:1091700053425341DBE703228DF80C20DA88ADF827
:1091800018201A89DB68ADF81A200593D1E704226C
:109190008DF80C20DB88ADF818300023ADF81A30BC
:1091A000F3E70523B4E700BFEC2C0020F82B0020E8
:1091B000142C0020DC2C0020C82C0020D82C0020EF
:1091C0004068FFF78FBD000008B50548012100F099
:1091D0003BFC18B9BDE80840FFF784BD08BD00BFDF
:1091E000D82C00202DE9F3419846374B1B780646D2
:1091F0000D46002B5CD000295DD009884FF6FF7327
:1092000099425BD06B88002B58D06B689B0758D174
:109210004AB92F890DF102013846FFF773FB30B1CF
:1092200002B0BDE8F08113885788ADF8023001A87C
:10923000FFF714FC044660B9BDF80230234A14213C
:1092400001FB032358890338C01B588148F207608B
:10925000E6E780F8008000238375BDF80230838242
:109260006B68036101211A4800F0FAFB2B88238107
:10927000B8F1030F6B88A38004BF0423A3754FF0DC
:10928000000508BF3368E06008BFA3611148E780AC
:10929000658101A900F0FBFA36B1E36833600E4B3B
:1092A00075601B89B5723381FFF78EFF0020B7E729
:1092B00048F20160B4E748F20460B1E748F20360A5
:1092C000AEE748F20260ABE7F02B0020142C002040
:1092D0000C2C0020C82C0020F82B002008B50346D9
:1092E00007480268042A08D00168064A42F821307B
:1092F000012100F0B5FB002008BD48F20B60FBE740
:10930000E42C0020E02B00202DE9F04F89B014223E
:10931000002103A809F05DFC794A137803F0FF01EE
:10932000009190463BB103A8FFF7DCFA00273846CE
:1093300009B0BDE8F08F101D00F0AAFB0028F5D1A0
:1093400040F6F8734FF080521B685C1C08BF6D4BF1
:109350006D4C08BF1B6811695269581C08BF02FB9D
:1093600001F323616949A3F5405300222046E360DD
:1093700000F0C4FD019407460028D8D1644965482F
:10938000DFF8A4B11C238C2200F022FABA463D4635
:109390004FF003093C46019BDE6856443046FFF718
:1093A0006BFB012862D0032817D000283DD15A4911
:1093B0004FF0140C0CFB04FC01EB0C0201F80C0048
:1093C00056600CF110020CF1080C0A44304661445E
:1093D000FFF780FB45F0020545E03268531C02D0E0
:1093E0004E4B9A4234D1321D06F58051106801303F
:1093F0002ED104329142F9D1DBF800203AB9022291
:109400000123CBF80060ABF8042000930BE014229A
:109410006243414B022099189854414A4E6054804F
:1094200001340881A4B245F001050AF5805ABAF565
:10943000405FB0D1B9F1010F98BF0025EDB2022D08
:1094400003D0062D31D0002D39D148F20A676EE7DE
:10945000314914226243881809F1FF39466003201C
:1094600088541FFA89F90134A4B2DEE7009B6BB17E
:10947000294B14226243991802209854DBF80020EB
:109480004A60274A088154800134A4B20022254949
:10949000CBF800603046FFF71DFBBBF80420022A22
:1094A0000CBF042208221543BFE7012388F80030CF
:1094B00003A80023C8F80430FFF714FA37E702A81E
:1094C000FFF7CCFAC8B10123013D03700A2D09D87A
:1094D000DFE805F006080608070807080F110F0067
:1094E0000023037102A90B4800F0D1F9FFF76CFECD
:1094F0001DE70323F5E70223F3E748F2076716E7C2
:10950000F02B00201410001060220020D83103003E
:109510003C2C0020C82C0020142C0020DEC0ADDE26
:10952000F82B0020E02C0020DC2C002073B50D4629
:109530000446C8B1C1B10DF10601FFF729FBB0B176
:109540000C4BBDF806006668142202FB00300121B6
:109550000C3000F085FA63682E600C336B600123D9
:10956000A372002002B070BD48F20460FAE748F22E
:109570000960F7E7142C002013B50446A8B10DF1DB
:109580000601FFF705FB98B10C4ABDF8063014211F
:1095900001FB0323DA6872B1A27A62B1DA680020B3
:1095A000013ADA60A07202B010BD48F20460FAE736
:1095B00048F20960F7E748F20560F4E7142C002050
:1095C00002230022FFF70EBE18B103230022FFF78B
:1095D00009BE48F204607047114B1B7813B504466E
:1095E000ABB14FF6FF73984214D001A8FFF736FADB
:1095F00098B10523037001230371C48001A90948B0
:1096000000F045F9FFF7E0FD002002B010BD48F280
:109610000160FAE748F20360F7E748F20760F4E711
:10962000F02B0020C82C00200F4B1B7807B5A3B1EE
:1096300001A8FFF713FA98B10623037001A90B489C
:1096400000F025F90A4B1A780AB101221A73FFF7C4
:10965000BBFD002003B05DF804FB48F20160F9E7B0
:1096600048F20760F6E700BFF02B0020C82C00206E
:10967000F82B002007B5ADF80600ADF804100DF189
:10968000060001A9FFF7D8FA03B05DF804FB07B59F
:109690001346ADF806000A4600200DF10601FFF75B
:1096A000CBFA03B05DF804FB07B51346ADF806002E
:1096B0000A460DF106000021FFF7BEFA03B05DF87F
:1096C00004FB20B119B103680B600020704748F219
:1096D000046070472DE9F84F3B4B1B780446002B84
:1096E0006CD000286DD0DFF8E4A01222002109F030
:1096F00070FA032323804FF0000BD04614274FF05D
:109700000109DAF80410BAF80A50BAF808600846F5
:10971000FFF7B2F9032808BF2388628804BF03F16A
:10972000FF33238007FB0B832E44DB6813446380E5
:1097300023891D4463892581B6B233446381C6F50C
:109740008066A389B6B2B34201F1080538BFA6818D
:1097500001F58051A94229D92B68013326D028462A
:10976000FFF7A2F901280AD0022815D00028F1D16C
:10977000A3880133A3800AE04FF0010BC1E7E3881F
:109780000133E380E3896A8803331344E3816B8800
:10979000033305EB8305DDE7E38884F8109001339C
:1097A000E380E389491B03EBA101E1810AF1140A7B
:1097B000BBF1000FE0D00020BDE8F88F48F2016057
:1097C000FAE748F20460F7E7F02B0020142C0020A1
:1097D00010B561B1B2FBF3F403FB1424A4B244B995
:1097E000C0E9001484608281C381204610BD0E2030
:1097F000FCE70920FAE782B050E8022FC188B2EBFB
:10980000324F4FF0000317BF92B241EA014142EAE2
:10981000014104E04268B2EB324F08BF012340E847
:109820000212002AE8D18DF807309DF80730002B8E
:109830000CBF1120002002B0704737B550E8013F3F
:109840009DB2C48925448489A54228BF2D1B048963
:10985000A54202BFBFF32F8F002207E0C5EA030530
:1098600040E80154002CE9D14FF001028DF80320AB
:109870000193019B9DF803200B6002F0FF0322B1CE
:109880000B880068184403B030BD1846FBE70A880F
:109890004B889A4209D150E8012FC2EA024240E8BF
:1098A0000123002BF7D1012070470020704737B506
:1098B00050E8023F1FFAA3F5C488A54202BFBFF3D8
:1098C0002F8F00220DE0C48925448489A54228BF3A
:1098D0002D1BC3EA054540E80254002CE8D14FF0A7
:1098E00001028DF803200193019B9DF803200B607A
:1098F00002F0FF0322B14B880068184403B030BD6A
:109900001846FBE70A884B889A4209D150E8022F93
:10991000C2EA224240E80223002BF7D1012070471F
:109920000020704701F01F024B090121914000EB1C
:10993000830000F065B84B0910B501F01F04012148
:10994000A14000EB830000F04FF8E04000F0010080
:1099500010BD01F01F0301229A404B0900EB830068
:10996000D14300F065B84B0901F01F0150F8230006
:10997000C84000F0010070472DE9F0474F1E7F09F5
:1099800080460E460137002558F8254008EB85092A
:10999000E44394FAA4F4B4FA84F44FEA451A202C70
:1099A00006D10135AF42EFD834462046BDE8F087F6
:1099B0005444A642F5D921464046FFF7BCFF002893
:1099C000F3D0D9F80040E44394FAA4F4B4FA84F450
:1099D000E5E710B5034653E8000F0A4643E80024C4
:1099E00094F0000FF7D110BD10B5034653E8000FF7
:1099F00040EA010243E8002494F0000FF6D110BDC4
:109A000010B5034653E8002F42EA010043E8000482
:109A100094F0000FF6D110BD10B5034653E8000FC7
:109A200000EA010243E8002494F0000FF6D110BDD3
:109A300010B5034653E8002F02EA010043E8000492
:109A400094F0000FF6D110BD10B5034653E8000F97
:109A500000EB010243E8002494F0000FF6D110BDA2
:109A600010B5034653E8002F02EB010043E8000461
:109A700094F0000FF6D110BD10B5034653E8002F47
:109A8000A2EB010043E8000494F0000FF6D110BDF2
:109A90000121FFF7A9BF0121FFF7B2BF0021FFF7A6
:109AA000BBBF10B590B1D0E9012301689B1ADBB2AE
:109AB0000A60013BDBB2FF2B026802D1002010716B
:109AC00010BD11684C1C14600B70F2E70E20F7E714
:109AD00037B5054600240DF107008DF80740FEF765
:109AE00087FD2A686B68116899420ED9481E10607C
:109AF00011F8014CEB68298A01FB0434AB68117939
:109B00001B1ADBB2994238BF13719DF80700FEF7AC
:109B100093FD204603B030BD37B5054600230DF157
:109B200007000C468DF80730FEF762FD2A681368BF
:109B3000591C1160E968641A298AB4FBF1F41C709D
:109B40009DF80700FEF778FD03B030BD826810B5C0
:109B500004462AB143690168006998470023A3605D
:109B600010BD0EB403B5039921B104AB01AA019352
:109B700000F076F802B05DF804EB03B070470A29F4
:109B800038B504460D4602D10D21FFF7F8FFA36852
:109B90002268591CA160D554D4E901329A4204D3F9
:109BA0002046BDE83840FFF7D1BF38BD2DE9F84F5A
:109BB0009846DDE90A43154682460F460A464FF0AD
:109BC0000109AA420FD2C14538BFC14613F0010BAB
:109BD00001D16CB900240126B8F1010F1BD908F19D
:109BE000FF386E43F8E709F10109B2FBF5F2E8E747
:109BF0009B070ED5B8F1000F0CBF30262026A145DB
:109C0000E9D2013C31465046FFF7B9FF002CF6D1AE
:109C1000E0E72026F3E7B7FBF6F39D42E1D9DFF852
:109C20003C80B7FBF6F3504618F8031006FB137799
:109C3000FFF7A5FF3346AB42B6FBF5F6F1D2BBF119
:109C4000000F02D00CB1A14501D3BDE8F88F20214F
:109C50005046013CFFF793FFF4E700BFEC2F0300F1
:109C60002DE9F74F054617468846002900F0428146
:109C700018F8011B49B92B7B002B00F03B812846CB
:109C800003B0BDE8F04FFFF761BF252940F0B78072
:109C9000002698F800302D2B424608F1010823D009
:109CA000302B24D02B2B25D000242A2B02F10101AC
:109CB00023D13B681A1D1B683A601C440A4613787E
:109CC0002E2B26D101324FF0000A104610F8011B4E
:109CD000A1F1300CBCF1090F1DD80A2303FB0A13B4
:109CE000A3F1300A0246F0E746F00106D1E746F05C
:109CF0000206CEE746F00406CBE711F8013CA3F1DB
:109D000030000928DBD80A2202FB0434303C0A4622
:109D1000CBE74FF0000A12F8011B01F0FB006828A6
:109D20009046F8D0782909D86F290CD8632962D0D9
:109D300022D8252963D0582900F0888098F800306F
:109D4000002B95D197E770390829F7D801A353F86C
:109D500021F000BFCF9E02003D9D02003D9D02000C
:109D60005D9E02003D9D02003B9E02003D9D020063
:109D70003D9D02004D9E0200642901D06929DDD17C
:109D80003A68D2F80090111D89EAE9723960A2EBB5
:109D9000E9724FF0010B092A35DCD34538BFD346B1
:109DA0002CB1B9F1000F01DB720700D5013CB307FC
:109DB00002D5BAF1000F03D0F00701D44CBB002448
:109DC000B9F1000F2DDAC9F100092D212846FFF75E
:109DD000D6FE06F00302022A04D1BAF1000F01D127
:109DE0001CBB0024CDE9004653460A2249462846BA
:109DF000FFF7DCFEA2E73B681A1D19783A60284697
:109E0000FFF7BDFE9AE70A230BF1010BB2FBF3F259
:109E1000C1E7A345D4D220212846013CFFF7AFFE7D
:109E2000CCE77107D5D52B21D0E7A345DAD2302175
:109E30002846013CFFF7A3FED2E73968CDE900468A
:109E40000A1D3A6053460A220968D0E739680A1D9C
:109E50003A60CDE9004653461022F5E73B681A1DEB
:109E60003A6016F00106D3F8009028D1B9F1000F3E
:109E700003D0484608F0E0FE0646B44200D904BBD1
:109E800009F1FF3919F8011F00293FF457AF28469F
:109E9000FFF775FEF6E728460136FFF770FE19F862
:109EA00006100029F7D1A642BFF448AF002C3FF4BA
:109EB00045AF20212846013CFFF761FEF3E700266D
:109EC000EDE720212846013CFFF759FED5E73B6826
:109ED0001A1D3A60302128461C68FFF750FE782191
:109EE0002846FFF74CFE00220823CDE90032214628
:109EF00010227CE703B0BDE8F08F00BF13B50B461E
:109F0000114680B9104B1148114AC01A0E23C008DF
:109F10000093104B0004104940F00100FDF7D3FD01
:109F20000E2002B010BD4BB9074B08480B4AC01AAF
:109F3000C0080E2300930004064BECE703601B6887
:109F400002B0BDE810401847342D03008C2D0300EB
:109F5000FC2F030092310300013003003030030076
:109F60002DE9F34188B93D4B3D483E4AC01AC0082F
:109F70000E243D4B009400043C4940F00100FDF7E5
:109F8000A2FD204602B0BDE8F0814AB9334B344807
:109F9000374AC01AC0080E24334B00940004EBE784
:109FA000D0F800E0BEF1000F09D12C4B2C48314A0B
:109FB000C01AC00808242C4B00940004DCE74BB9FD
:109FC000264B27482C4AC01AC0080924264B009467
:109FD0000004D1E74568D5F80480B3FBF8F508FB29
:109FE00015354DB11D4B1E48244AC01AC00809241E
:109FF0001D4B00940004BFE78D0709D0174B18488C
:10A000001F4AC01AC0081024174B00940004B3E77D
:10A0100012F0030F09D0114B11481A4AC01AC00898
:10A020001024114B00940004A6E7C568A9420BD385
:10A030004D1EEC180569AC4206D8DEF80C40A4466B
:10A0400002B0BDE8F0416047044B05480E4AC01A13
:10A05000C0081024044B009400048DE7342D030045
:10A060008C2D0300FC2F0300A431030001300300FA
:10A070007E3003002A3003003D30030084300300AB
:10A08000AE300300C6300300E9300300F7B580B9F5
:10A090002A4B2B482B4AC01AC0080E242A4B009486
:10A0A00000042A4940F00100FDF70DFD204603B0F1
:10A0B000F0BDD0F800C0BCF1000F09D11F4B204803
:10A0C000234AC01AC00808241F4B00940004E8E784
:10A0D0004AB91A4B1A481F4AC01AC00809241A4B19
:10A0E00000940004DDE74768D7F800E00EF1FF3781
:10A0F0000F4209D0114B1248174AC01AC008102449
:10A10000114B00940004CCE7C768B9420CD3046932
:10A110004D1E0EFB0255A54206D8DCF81040A446A1
:10A1200003B0BDE8F0406047044B05480B4AC01A35
:10A13000C0081024044B00940004B2E7342D03003F
:10A140008C2D0300FC2F0300B73103000130030006
:10A150002A3003003D300300103103003631030084
:10A1600029DF704728DF704770B503689E6886B0A6
:10A1700004460D466EB114220021684608F029FD00
:10A18000A3680593237901952BB1012B0DD0684667
:10A19000B04706B070BD01238DF8003023690293EB
:10A1A000E368039363690493F1E702238DF80030B9
:10A1B000E3681B030293F5E70846704700207047E9
:10A1C000024B187A003818BF01207047902D0020EC
:10A1D000034B187A0122B0FA80F05A744009704794
:10A1E000902D002008B510461A4608F0C9FC002042
:10A1F00008BD000008B514220021044808F0E9FC5D
:10A200000348FFF7F8FA002008BD00BF902D00209A
:10A21000802D002010B5094C094B43602046FFF704
:10A2200037FC40B908F03EFA064920741C23064862
:10A230008C22FFF7CDFA002010BD00BF902D00202A
:10A24000CC310300F42C0020802D002070B5244C6C
:10A25000244E237A25463BB923492448FFF727FBA0
:10A26000306008B9606070BD022334682B722379B6
:10A2700073B1012B24D020460321FFF775FF002383
:10A280002B726B6018491948BDE87040FFF73ABB64
:10A29000D4E90523D21AB2F5805FD4E9031028BFB0
:10A2A0004FF480529208012A38BF01221944184401
:10A2B000FFF756FF50B11128DDD101232B72D2E7F1
:10A2C000D4E903031844FFF74DFFF3E72B7C002B81
:10A2D000C9D10146BDE87040022000F009B800BFB6
:10A2E000902D0020A82D0020A42D0020802D0020DE
:10A2F00038B5831E012B45D8234C237A002B41D03F
:10A30000022B09D1032830D0204B00221B68E260C9
:10A310001A793AB1012A22D0637C7BBBBDE8384070
:10A32000FFF794BFD3E905128D1AB5F5805F94BF8E
:10A33000521902F580529A619142EDD102284FF0F4
:10A34000000308BF19462372104B18BF0D2118686F
:10A35000FFF70AFF0E490F48FFF7D4FADCE71A6946
:10A3600001321A615B699A42E7E7E3680133082B1F
:10A3700001D8E360D0E70023E360DFE7BDE83840C1
:10A3800008F080B938BD00BF902D0020A82D002016
:10A39000A42D0020802D002000F0FD03012B08D10A
:10A3A000044B00225A74421E504250411874FFF769
:10A3B0004DBF7047902D002010B5064C201DFFF7B3
:10A3C00067FB28B9637C1BB9BDE81040FFF73EBFAF
:10A3D00010BD00BF902D00202DE9F34180460D46B1
:10A3E0000F4801A916461F46FFF727FA0446A8B1F1
:10A3F0001C22002108F0EDFB2D0B0123237101A984
:10A400000748C4F80080A760E5606661FFF73FFA7F
:10A41000FFF7D2FF002002B0BDE8F0810420FAE788
:10A42000802D00202DE9F74381468846104801A978
:10A4300017461E46FFF701FA0446B0B11C22002160
:10A4400008F0C7FB00250A9BA36001A9C4E90378B3
:10A4500007482571C4F800906661FFF718FAFFF706
:10A46000ABFF284603B0BDE8F0830420FAE700BF45
:10A47000802D00202DE9F84FB0F806A04579D2F8DC
:10A4800000B09DF828900AFB05F5043D88460BEBCB
:10A490000301A94203F1040488BFA5EB030BB4FB3D
:10A4A000FAF607460AFB1644C2F800B04EB9AAEB0A
:10A4B00004055D4528BF5D46BBF1000F04D1BDE832
:10A4C000F88F3F68013EF1E7043408EB06003C4496
:10A4D0002A46B9F1000F0DD02146ABEB050B08F071
:10A4E0004FFBDA452E443F6855464FF0000428BF25
:10A4F0005D46E1E701462046EFE7FFF7D2BAF8B53F
:10A5000046790146721E0546002393422D6803D307
:10A510000024A64202D8F8BD0133F6E70F682846AA
:10A52000FFF7FAFA01343946F3E72DE9F843068AD2
:10A53000CD1C0746FFF7CCFA043E35440446B5FB74
:10A54000F6F5F0B14FF48073EDB28380C680013D23
:10A55000076081464FF00008A84512D23846FFF741
:10A56000B7FA064648B163790133637108F101080F
:10A57000C9F8000007608146EEE72046FFF7BFFFFD
:10A5800034462046BDE8F88301210430FFF768BA5D
:10A5900010B5012104460430FFF76EFA10F0FF0FEA
:10A5A00004D12046BDE81040FFF7A9BF10BD1FB57C
:10A5B00003920022009203AAFFF75CFF05B05DF84A
:10A5C00004FB1FB503920122009203AAFFF752FF7A
:10A5D00005B05DF804FB41DF70470000064B10B585
:10A5E00000241C70054B1C60BFF35F8F04490548B5
:10A5F00000F039F8204610BDB42D0020B82D002001
:10A6000004320300AC2D002007B500230DF1070034
:10A610008DF80730FDF7ECFFF1EE103A23F09F03C1
:10A62000E1EE103ABFF35F8F094B4022C3F884215B
:10A630009DF80700FEF700F808F034F820B1FFF7A6
:10A64000CAFF03B05DF804FB20BF40BF20BFF8E79E
:10A6500000E100E0836800225A60C3E904229A60A6
:10A66000DA601A6070470B684A684360934208BF1B
:10A670000023016008BF43607047436843B102682C
:10A68000916852680B449342436004BF00234360C7
:10A69000704770B5446806460D46206818B1B36827
:10A6A0002946984718B923682B60256070BD246837
:10A6B000F3E74368186808B102681A607047436896
:10A6C000186870474368186800B97047884203D11A
:10A6D00002681A600120704703460068F4E7000032
:10A6E00010B50D49A1F59472914201D800200FE0F8
:10A6F0008C1AE30F03EBE4035B1002EBC30452F884
:10A700003330834205D802D204F10802ECE76068D6
:10A7100010BD2146E8E700BF1037030008B5FFF77A
:10A72000DFFF024B002808BF184608BDD3350300E1
:10A730000B7B23B14B6803600023037170470B68E8
:10A7400003600123F9E703684A68896810B5D41AE1
:10A750008C428BBF5B1800230360026098BF0371BB
:10A7600010BD03680A68896810B59C1A8C428BBFBB
:10A770005B1A01230360026098BF037110BD037967
:10A7800010B504461BB1FFF7DEFF206810BDFFF7D0
:10A79000E8FFFAE7054B1B68082B01BF044B18685C
:10A7A000B0FA80F0400918BF002070473001001057
:10A7B0003401001008B54FF080430022C3F80C218B
:10A7C000C3F81021C3F838254FF0805203F54043F9
:10A7D000D2F80414C3F82015D2F80814C3F82415CD
:10A7E000D2F80C14C3F82815D2F81014C3F82C159D
:10A7F000D2F81414C3F83015D2F81814C3F834156D
:10A80000D2F81C14C3F84015D2F82014C3F844152C
:10A81000D2F82414C3F84815D2F82814C3F84C15FC
:10A82000D2F82C14C3F85015D2F83014C3F85415CC
:10A83000D2F83414C3F86015D2F83814C3F864158C
:10A84000D2F83C14C3F86815D2F84014C3F86C155C
:10A85000D2F84424C3F87025FFF79CFF10B1384BA1
:10A86000384A1A60FFF796FF18B1374BFB22C3F83E
:10A870001825FFF78FFF48B13449354B0A681B682C
:10A8800022F00F0203F00F0313430B60FFF782FF68
:10A8900018B1304B4FF400721A604FF08043D3F878
:10A8A0000024D20744BF6FF00102C3F800242A4AF3
:10A8B000D2F8883043F47003C2F88830BFF34F8F6A
:10A8C000BFF36F8F4FF01023D3F80022002A03DB71
:10A8D000D3F80432002B2FDA204B0122C3F80425D1
:10A8E000D3F80024002AFBD04FF010221221C2F826
:10A8F0000012D3F80024002AFBD04FF010231222BC
:10A90000C3F80422154B1A46D3F800140029FBD0D3
:10A910000021C3F80415D2F80034002BFBD0BFF39C
:10A920004F8F0D490E4BCA6802F4E0621343CB60AF
:10A93000BFF34F8F00BFFDE70A4B0B4A1A6008BDFB
:10A940008C5600404881030000F00040E40E0040B7
:10A95000580200104096024000ED00E000E0014087
:10A960000400FA05982200200090D003074B1B5CDE
:10A970001F2B8ABF064A4FF0A04203F01F03D2F8F4
:10A980000405D840C04300F00100704714370300AD
:10A9900000030050074B1B5C1F2B86BF064903F0CA
:10A9A0001F034FF0A041012202FA03F3C1F80C3556
:10A9B000704700BF1437030000030050074B1B5CB7
:10A9C0001F2B86BF064903F01F034FF0A041012251
:10A9D00002FA03F3C1F80835704700BF14370300CB
:10A9E0000003005008B50020FFF7E8FF0120FFF743
:10A9F000E5FF0220FFF7E2FFBDE808400320FFF774
:10AA0000DDBF08B50020FFF7C5FF0120FFF7C2FF3B
:10AA10000220FFF7BFFFBDE808400320FFF7BABFE1
:10AA20000A4B185C1F288ABF094B4FF0A04300F067
:10AA30001F00D3F804250121814021EA02000A40C9
:10AA4000C3F80805C3F80C25704700BF143703008E
:10AA500000030050074B1B5C1F2B8ABF064A4FF0B8
:10AA6000A04203F01F03D2F81005D840C04300F005
:10AA70000100704710370300000300500B2809D075
:10AA80000C2809D0182809D019280CBF03204FF032
:10AA9000FF30704700207047012070470220704748
:10AAA000014B185C704700BF10370300C20710B598
:10AAB00004460CD54FF0A0430322C3F83427C3F853
:10AAC0003827C3F83C27C3F84027FFF78BFFA307BD
:10AAD0000AD54FF0A0430C22C3F82C27C3F8302727
:10AAE000C3F86027C3F8642710BD000038B5074CD1
:10AAF000051E04F1080318BF1C4623682BB11A6811
:10AB000022605B6828469847F7E738BDC42D0020CF
:10AB100020B9054B01225A70FFF7E8BF012802D186
:10AB2000014A9070F8E77047BC2D002020B9034B14
:10AB300001225A70FFF7DABF704700BFBC2D00201A
:10AB400038B50B4C237883B90A486360A36023614E
:10AB5000E36000F0C9F8054607F0A4FD08B900F06D
:10AB6000CFF801232370284638BD8525FBE700BFB9
:10AB7000BC2D002011AB020037B50B4C00230DF1AA
:10AB800007008DF80730FDF733FDE368013BE36014
:10AB9000E56815B900F0C6F8A5709DF80700FDF747
:10ABA0004BFD03B030BD00BFBC2D0020012813B504
:10ABB00008D003281CD018B9104B0122C3F88020FC
:10ABC00002B010BD0E4C00230DF107008DF80730C8
:10ABD000FDF70EFD23780BB9FFF7B2FFE3689DF890
:10ABE00007000133E3600123A370FDF725FDE7E7CC
:10ABF00000F086F8FFF7C0FFE2E700BF00E100E0E9
:10AC0000BC2D00201FB503788DF8003043680193F8
:10AC100083688DF80830C368054A0393054B68467E
:10AC200053F8213052F82110984705B05DF804FB25
:10AC3000D02D0020D82D00201FB503788DF80030CE
:10AC40004368019383688DF80830C368054A03930D
:10AC5000054B684653F8213052F82110984705B04B
:10AC60005DF804FBD02D0020D82D0020F0B5194B45
:10AC700090F800C0DFF86CE043F82C20164B164625
:10AC80000A6943F82C204B7F0EF80C300C4607461F
:10AC90000FCC89B06D460FC594E80F0085E80F0012
:10ACA0001EF80C30CDF810C04BB1002E0B4A69468F
:10ACB00008BF3246381D00F0E1FD09B0F0BD002E9E
:10ACC000074A694608BF324607F10C0000F0B2FBA4
:10ACD000F3E700BFD82D0020D02D002005AC0200E6
:10ACE00039AC0200E02D0020044A137923B9012178
:10ACF000106091801846704785207047E42D002031
:10AD0000074B1A68D2075FBFC02283F800230122D5
:10AD10001A604FF080430122C3F81825704700BF26
:10AD200000E100E0044B01221A604FF08042D2F8AB
:10AD30001834DB03FBD470470C000040154B07B5FB
:10AD40001A687AB100221A601B680093009B4FF0CA
:10AD500080430122C3F808230F4B587910B95A7168
:10AD60001B6898470D4B1A6882B100221A601B6855
:10AD70000193019B4FF080430222C3F80823064B46
:10AD80001B68012003B05DF804EB184703B05DF8C1
:10AD900004FB00BF00010040E42D0020040100403E
:10ADA00000F1804000F5C040002382B003600368DA
:10ADB0000193019B02B0704703681F2B83BF03F010
:10ADC0001F03036001484FF0A0407047000300508C
:10ADD00007B5019001A8FFF7EFFF019B00EB83008F
:10ADE000D0F8003723F44033C0F80037D0F80037EC
:10ADF00043EA0141C0F8001703B05DF804FB00000E
:10AE0000054B4FF0FF32072843F8202084BFC018BD
:10AE100080F85820704700BFEC2D002010B5174C6B
:10AE200094F86A3043BB04F130033021FF2201392A
:10AE300011F0FF0103F8012BF9D1C8B2FFF7E0FFD1
:10AE400001310C29F9D1062200210D4807F0C1FE7D
:10AE50000C4BC02283F8062340221A604FF4BE70C8
:10AE6000FFF79EFF084B4FF00042C3F80423012375
:10AE700084F86A30002010BD0820FCE7EC2D00208B
:10AE8000502E002000E100E000600040034B93F8EA
:10AE90006A00003818BF0120704700BFEC2D002069
:10AEA000F7B53B4E3318054693F93030002B6CDA7A
:10AEB0008B78C3F34003002B0BBF082400240C2025
:10AEC0000820844202D1042003B0F0BD56F824705B
:10AED000013743D1701946F8242080F8304013B967
:10AEE000331983F858508B785A0717D4D80737D5B9
:10AEF00001A80195FFF760FF019B00EB8300D0F8EC
:10AF0000003723F00203C0F800372248EA0805F0B2
:10AF100007070123BB40875C3B4383548B780A7847
:10AF200013F0020328D0A40004F1804404F5C044C7
:10AF30002D02D4F8103523F44F3323F44073C4F8B2
:10AF400010351204D4F8103505F47C5502F4403263
:10AF500015431D43C4F810550020B5E70134B0E790
:10AF600001A84A780195FFF727FF019B03F5E073DD
:10AF7000920040F82320C8E7083C344494F860501D
:10AF800045EA821284F86020E6E708209CE700BFCB
:10AF9000EC2D0020502E002073B5224C26180546BB
:10AFA00096F93020072A1ADD224492F858309B097E
:10AFB000032B0FD1019001A8FFF7FEFE019BD0F8F3
:10AFC0001015D94001F0010102312846FFF700FFBA
:10AFD00002B070BD012B0CBF02210321F5E7D3B2F3
:10AFE000072BF5D8930003F1804303F5C043D3F852
:10AFF000100540F00100C3F8100502F14000800088
:10B0000080B2FFF7CDFE0029E2D096F9303054F837
:10B010002330002BDCD0012303FA02F2024BC3F8E9
:10B020000423D5E7EC2D00200060004007B5019017
:10B0300001A8FFF7C1FE019BD0F81005D84000F031
:10B04000010003B05DF804FB2DE9F04F002489B046
:10B05000CDE90244624D4FF48072012102F1804338
:10B0600003F5C04390B21B68012B06D1D5F8043319
:10B070000B4202D0FFF794FE0C430432B2F5907FEE
:10B080004FEA4101EAD1574B1B68012B0ED14FF417
:10B09000BE70FFF785FE4FF0A04344F00044D3F8A4
:10B0A00010350293504BD3F81035039314F0FF0F73
:10B0B0001AD04E4F00250126344210D0AB0003F1C8
:10B0C000804303F5C043D3F81005D3F8101557F8A3
:10B0D000253023B1C1F30141C0F305209847013564
:10B0E000082D4FEA4606E7D1002C75DA04AF00239D
:10B0F00004937B604FF0FF33CDE90633DFF8EC902B
:10B10000DFF8EC800026354618F9012B531C4AD095
:10B11000C2F3C2000123D4B202F03F0B02F00702D7
:10B1200003FA02F208AB191811F8083C13423AD09E
:10B1300009EB0B03A40993F9303059F823A0BAF1B5
:10B14000000F08D1032C2ED117F800C04CEA020CD6
:10B1500007F800C001E0032CF6D001A8CDF804B038
:10B16000FFF72AFE019B11F8181C03F5E07C114241
:10B1700050F82C00C0F3014005D0022813D1032C55
:10B180000BD1214604E003280DD1032C05D1022167
:10B190005846FFF71DFE0135EDB2BAF1000F02D09F
:10B1A00021465846D0470136042EADD1A5B14FF007
:10B1B000A0430299D3F8102503F540739142D3F8C8
:10B1C000103502D10399994206D002920393049A52
:10B1D000059B0692079393E709B0BDE8F08F00BF87
:10B1E000006000407C61004000030050EC2D002016
:10B1F0004C2E0020014B1B68184700BF582E002022
:10B200000E4B984237B50C4602D0002003B030BD3B
:10B2100000230DF107008DF80730FDF7E9F9084B21
:10B220001D7915B901221C601A719DF80700FDF700
:10B2300003FA002DE9D01120E8E700BF002000400C
:10B24000582E0020034B984201BF034B00221A6086
:10B250001A71704700200040582E002000234350F0
:10B2600082B043580193019B02B070470A4610B563
:10B270004FF48E71FFF7F2FF136A9168C95C136A8D
:10B2800001331362C0F81C1510BD8B690A4610B556
:10B290004FF4847123B9FFF7E1FFD0F8183510BDE2
:10B2A000FFF7DCFF536AD168D0F81805C854536A19
:10B2B00001335362F3E700001FB501238DF800301E
:10B2C000044BCDE90110D3E900126846904705B060
:10B2D0005DF804FB602E002030B54C48D0F80433F4
:10B2E00013F4007F85B005464DD0D0F82431002BF3
:10B2F00049D04FF49271FFF7B1FF4FF40173C0F8DA
:10B300000833434B93F829200AB9012242603F4990
:10B3100002228DF80020D1F88024C1F88024039205
:10B320009A690292DA6801920022C3E9062268460D
:10B33000D3E9001290473548D0F81C315BB134494D
:10B340004A690B6A9A420A464AD991F82830002B7A
:10B3500046D1FFF78BFF2D48D0F844318BB14FF425
:10B36000A271FFF77BFF2A4B93F829200AB1012233
:10B3700002609A692AB10022586AD9689A61FFF777
:10B380009BFF05B030BDD5F804335B07D3D5D5F8A6
:10B390000831002BCFD01E4C1C482146FFF775FF0B
:10B3A000636AA2699A422346C5D1E269E1684AB15B
:10B3B0002369E3600023606AA261E3616362FFF7CF
:10B3C0007BFFB8E794F829200AB901226A600F4A86
:10B3D0004FF40170C2F808030022586A9A61EEE740
:10B3E0000A484FF48E71FFF739FF5369002BB2D032
:10B3F00051690291002391688DF8003001915361E9
:10B400006846D2E900139847A5E700BF0020004036
:10B41000602E00201F2886BF00F01F00044B4FF055
:10B42000A04300F5E070022243F82020704700BFDF
:10B43000000300502DE9F843634B057991462C2217
:10B4400002FB0532064692F82A200C469846002A4E
:10B4500040F0B6805D490068FFF7D2FE074600283D
:10B4600040F0B08021684A1C10D01F2987BF584A7D
:10B4700001F01F030B464FF0A0420120984003F556
:10B48000E073C2F80805032042F823006068431CFB
:10B490000DD01F288BBF00F01F0303464C4A4FF00E
:10B4A000A04203F5E0734FF0000C42F823C033686C
:10B4B000A269C3F8242594F814C0627DBCF1010F81
:10B4C0004CEA0202C3F86C25C3F81405C3F80C1546
:10B4D0002BD1A168481C0DD01F298BBF01F01F0282
:10B4E0000A463B484FF0A04002F5E0724FF0000CD6
:10B4F00040F822C0E068421C13D01F2887BF344A9E
:10B5000000F01F0C84464FF0A0424FF0010E0EFADF
:10B510000CFE0CF5E07CC2F808E54FF0030E42F893
:10B520002CE0C3F80805C3F810152C236B4308EB77
:10B530000302C2F80490226948F80320B9F1000F11
:10B540002BD03068247F4FF48E71FFF787FE306870
:10B550004FF4A271FFF782FE32681E4BC2F804332B
:10B56000110B42F30732002AA8BF02F160404FEAF4
:10B570004413BABF184801F00F0400F56140DBB274
:10B58000B4BF035580F8003301F01F01012303FA13
:10B5900001F15209114B43F8221033680422C3F819
:10B5A00000252C2303FB05830022C3E9062283F830
:10B5B00029205A61012283F82A203846BDE8F88301
:10B5C0000827FAE71127F8E7602E0020D9B2020019
:10B5D000000300508000020014ED00E000E100E0F4
:10B5E0002DE9F04103680479244D0022C3F80025B9
:10B5F0002C2202FB0452014652686AB1204AC3F869
:10B60000082343F30732C3F3043652090120B04044
:10B6100020321C4E46F82200D3F80C05D3F81485CE
:10B62000D3F80865D3F810754FF0FF329042C3F895
:10B630001425C3F80C25C3F80825C3F8102501D03C
:10B64000FFF7E8FEB8F1FF3F02D04046FFF7E2FE09
:10B650007A1C02D03846FFF7DDFE731C02D030465C
:10B66000FFF7D8FE0868FFF7EDFD2C2303FB045419
:10B67000002384F82A306360BDE8F081602E00204A
:10B680008402020000E100E02DE9F047204F90F82D
:10B6900004904FF02C0808FB097405466669002EDB
:10B6A00034D162610068A16026624FF48E7184F823
:10B6B0002860FFF7D3FD2868012383602146FFF748
:10B6C000D5FD6368A0468BB92868D4F814A0236A16
:10B6D0009A4511D82A68D2F81C31002BFBD00123DF
:10B6E000D3602C2303FB097300225A613046BDE866
:10B6F000F08794F828303BB9D0F81C31002BF8D0F3
:10B700004146FFF7B3FDE2E70F26EAE71126EDE732
:10B71000602E00200023435082B043580193019BC8
:10B7200002B070471FB501238DF80030044BCDE9FE
:10B730000110D3E900126846904705B05DF804FB9C
:10B740008C2E00201F2886BF00F01F00044B4FF0F6
:10B75000A04300F5E070022243F82020704700BFAC
:10B76000000300507FB5434AD2F82461002E60D018
:10B7700010464FF49271FFF7CDFF02238DF8003091
:10B78000D2F88034C2F880340393D2F83C35029367
:10B79000394BDA6801920022C3E906226846D3E9F0
:10B7A000001290473348D0F8443173B14FF4A2717E
:10B7B000FFF7B0FF304B9A693AB10022C3E9062285
:10B7C000D968D0F83C05FFF7ADFF2A48D0F8203102
:10B7D000ABB14FF49071FFF79DFF0123C360264B7F
:10B7E0005A6962B1D0F84C150291002299688DF81F
:10B7F000002001915A616846D3E9001290471D4824
:10B80000D0F858319BB14FF4AC71FFF783FF1A4B5E
:10B810005A6962B1D0F84C150291002299688DF8EE
:10B82000002001915A616846D3E90012904704B0A4
:10B8300070BDD2F81031002BB4D04FF4887110468F
:10B84000FFF768FF0C4BD2F83C0599698842A9D1F3
:10B85000DC69D96864B1D2F8005225F02005C2F83D
:10B8600000521A699C61DA60DE61FFF75BFF99E7BD
:10B870009C61FAE7002000408C2E00202DE9F8435F
:10B880006A4B06799146242202FB0632044692F85E
:10B8900020200D469846002A40F0C3806449006885
:10B8A000FFF7AEFC0746002840F0BD802868421C28
:10B8B00010D01F2887BF5F4A00F01F0303464FF0D8
:10B8C000A0420121994003F5E073C2F80815032155
:10B8D00042F8231069684B1C0DD01F298BBF01F063
:10B8E0001F030B46534A4FF0A04203F5E0734FF09D
:10B8F000000C42F823C02368AA69C3F8242595F8F0
:10B9000014C06A7DBCF1010F4CEA0202C3F86C2539
:10B91000C3F80C05C3F814152BD1A968481C0DD029
:10B920001F298BBF01F01F020A4642484FF0A0407A
:10B9300002F5E0724FF0000C40F822C0E868421CAB
:10B9400013D01F2887BF3B4A00F01F0C84464FF0DE
:10B95000A0424FF0010E0EFA0CFE0CF5E07CC2F88E
:10B9600008E54FF0030E42F82CE0C3F80805C3F8D1
:10B9700010152423734308EB0302C2F804902A69CC
:10B9800048F80320B9F1000F3AD020682A7F4FF41D
:10B990008871FFF7BFFE20684FF49071FFF7BAFE81
:10B9A00020684FF49271FFF7B5FE20684FF4A27142
:10B9B000FFF7B0FE20684FF4AC71FFF7ABFE2368D1
:10B9C0001D49C3F80413190B43F30733002BAEBF13
:10B9D00003F1604001F00F0518484FEA4212A8BF7A
:10B9E00000F56140D2B2B4BF425580F8002301F0A7
:10B9F0001F01012202FA01F15B09114A42F82310EA
:10BA000023680822C3F80025242303FB06830022B1
:10BA1000C3E906225A61012283F820203846BDE896
:10BA2000F8830827FAE71127F8E700BF8C2E0020DB
:10BA300065B70200000300501003420014ED00E05F
:10BA400000E100E02DE9F0412E4E0579242303FBAF
:10BA5000056304465B6800686BB12B4BC0F8083384
:10BA600040F30733C0F304315B0901228A402033DD
:10BA7000264941F82320D0F80032012223F0200388
:10BA8000C0F800324FF4AC714260FFF743FE236808
:10BA9000DA60D3F85821002AFBD00022C3F8002531
:10BAA000D3F80C05D3F81485D3F80815D3F810751E
:10BAB0004FF0FF329042C3F80C25C3F81425C3F8A9
:10BAC0000825C3F8102501D0FFF73CFEB8F1FF3F71
:10BAD00002D04046FFF736FE7A1C02D03846FFF708
:10BAE00031FE4B1C02D00846FFF72CFE2068FFF702
:10BAF000A9FB242303FB0565002385F820306B6038
:10BB0000BDE8F0818C2E00201003420000E100E02F
:10BB100001F06043B3F1005F2DE9F041064638D1F2
:10BB20001E4B0779242505FB073598466C69002CC8
:10BB300031D16A610068A9604FF49071FFF7EAFDA6
:10BB40004FF4AC713068FFF7E5FD33686A69A968A6
:10BB5000C3F84415C3F8482501229A606A68AAB957
:10BB6000D3F82021D3F858411AB9002CF8D00F246B
:10BB700007E0002CFBD10122DA60D3F85821002A1B
:10BB8000FBD0242303FB078700237B612046BDE80D
:10BB9000F0811024FAE71124F8E700BF8C2E002072
:10BBA0000220FEF73DBF00002DE9F04780460D461C
:10BBB000FEF764FF0328044610D8012D10D0022D93
:10BBC00030D05DB91A48FCF73AFC1A4B04EB44023A
:10BBD00013449E78184B1B5DB34219D0BDE8F08723
:10BBE000144D00EB4002A918AE5C4A78470052B1F0
:10BBF000DFF84C900E484A464FF48041FCF707FCB2
:10BC000008B989F800803B192B449A780A4B1A55D9
:10BC1000002EE3D0094B1B68002BDFD03046BDE877
:10BC2000F047184700EB4004024804446678EFE709
:10BC3000D82E0020182F0020312F00202C2F00207C
:10BC4000B02E002000780221FFF7AEBF08B5094BE7
:10BC50001B7853B10020FEF7B1FE0120FEF7AEFEC7
:10BC6000BDE808400320FEF7A9BEBDE80840FEF786
:10BC7000B9BE00BFB12E0020F8B57B4C2378054635
:10BC80001BB100232370FFF7E1FF172D00F288801E
:10BC9000DFE805F00C17174354657680888D888D92
:10BCA000959A9A9A9A9AC4C9D1D9E4E4FFF7CEFF3B
:10BCB0006E48FCF7C4FB6E4B002204461A70204607
:10BCC000F8BD0020FEF752FEF8B10020FEF776FE28
:10BCD000022D0CBF4FF4E1614FF47A61644B1D708B
:10BCE0004FF400404FF47A740025E0FB01454FF417
:10BCF000FA6200232046294606F04AFE0022014649
:10BD0000BDE8F8405948FCF782BBFEF743FE022D20
:10BD10000CBFC8214FF4C871E0E70020FEF726FEF3
:10BD200040B10020FEF74AFE4FF44871504B032209
:10BD30001A70D5E7FEF72EFEC821F7E70020FEF7C0
:10BD400015FE38B10020FEF739FE4FF47A61484BFA
:10BD50000422EDE7FEF71EFE4FF4C871F7E700205E
:10BD6000FEF704FE48B10020FEF728FE404B0522F6
:10BD70001A7040F6CD410022C2E7FEF70BFEF5E750
:10BD80000020FEF74DFE3A4B06221A70002240F2C8
:10BD90006661B5E70020FEF7FDFD354B07221A70FE
:10BDA00000248CE701202070FEF73AFEEEE7012028
:10BDB0002070FEF735FE00224FF40051A0E7FEF799
:10BDC00020FE2B4B0C22EAE72A482B4EFCF737FBD0
:10BDD000D5F1110504461CD0D8B9012D13D0C823C4
:10BDE0005D434FF400474FF47A7000214FF4FA623C
:10BDF0000023C7FB050106F0CBFD224601461D4886
:10BE0000FCF705FB04460220FEF7C4FD0123337056
:10BE100055E70220FEF7D2FD0023F8E7FFF716FFF3
:10BE2000134B1222BBE7FFF711FF0020FEF7B2FD14
:10BE30000F4B1322B3E7FFF709FF0120FEF7AAFD1E
:10BE40000B4B1422ABE7FFF701FF0020FEF7A2FD2A
:10BE50000120FEF79FFD064B1522A0E7FEF7D1FD5E
:10BE6000034B1D709CE700BF282F0020F82E0020F8
:10BE7000302F0020B82E0020B12E0020044B1B686C
:10BE8000DB0703D5034B1878FFF7F6BE704700BFFA
:10BE9000242F0020302F0020002910B514BF0324C8
:10BEA0000024FEF7FDFD1F288ABF0A4B4FF0A04378
:10BEB00000F01F0003EB8000D0F8002722F440328E
:10BEC000C0F80027D0F8003743EA0443C0F8003731
:10BED000002010BD00030050032801D8FEF7BABDB2
:10BEE00000207047044B1B6813F0010301D0FFF7DB
:10BEF000C3BE1846704700BF242F002038B51C4B26
:10BF000018601C4B10F00204054619601AD01A4B39
:10BF10001A480E221A700F22DA7010229A7111221A
:10BF20005A72042140F23332FCF740F8044648B913
:10BF3000FCF792F8044628B90146114A1148FCF76B
:10BF40005BFA0446EB0711D50120FEF7AFFD6CB993
:10BF500021460D4A0D48FCF74FFA044630B9BDE8BA
:10BF600038400B4A0B480121FCF746BA204638BD41
:10BF7000242F00202C2F0020182F00203C370300F6
:10BF800045BC0200603703007DBE02006437030039
:10BF9000A1BB02005C370300032811D8012A0AD193
:10BFA00001290FD100F10E02D2B20D4B00EB40007F
:10BFB0001A54002070470129F7D0022904D049B152
:10BFC000072070470022F8E7054B00EB40001844BB
:10BFD0004270EEE7024B00EB400018448270E8E745
:10BFE000182F0020032802D80121FFF755BF062093
:10BFF000704708B5012202210020FFF7CDFF08B1EC
:10C00000072810D1072202210120FFF7C5FF08B140
:10C01000072808D100210A220846FFF7BDFF10B10A
:10C02000072808BF002008BD0388102B10B502D0D8
:10C03000112B1ED010BD1A4C2168B1B9012208463F
:10C04000FFF7AAFF08B1072824D107220221012007
:10C05000FFF7A2FF08B107281CD10422022100200B
:10C06000FFF79AFF08B1072814D123680133236032
:10C07000E0E70B4A1368013B1360002BDAD1FFF7AE
:10C08000B8FF0028D6D0074B1B68002BD2D0BDE8E4
:10C0900010401847034B1B68002BE6D09847E4E795
:10C0A0003C2F0020382F002008B50020FFF79AFF12
:10C0B00008B1062806D10120FFF794FF10B1062829
:10C0C00008BF002008BD00000D4B10B518600C46DD
:10C0D00029B10120FFF700FF40B102232370094B73
:10C0E0001B6853B9BDE81040FFF783BFFFF7F4FEAC
:10C0F00008B10B23F2E72070F1E7002010BD00BF6C
:10C10000382F00203C2F002033DF704776DF704748
:10C1100078DF70477ADF70477CDF70478FDF7047CA
:10C120000B78052B02D0062B04D07047034B01225D
:10C130001A707047014B0022FAE700BFB8340020A4
:10C14000FBF7A0BF08B50C490C48FEF718FB4FF6EB
:10C15000FE72C1B20A4805F07DFA132807D943F2EE
:10C160000143984207D0BDE80840FBF78BBF054B61
:10C17000C340DB07F7D508BD5034002060340020F1
:10C180003C34002001810A0008B50020FFF7AAFE18
:10C1900008B1FBF777FFFFF787FF08B1FBF772FFE6
:10C1A000FFF7B2FF18B1BDE80840FBF76BBF08BD51
:10C1B0007FB50B461849194A09781288C1B1002188
:10C1C0000292CDE9001142B25BB2154806F02FF998
:10C1D00030F0080309D020F00203112B05D043F200
:10C1E0000143984201D0FBF74DFF07B05DF804FB17
:10C1F0008DF814009BB2C0F3032040EA03101B111A
:10C200008DF815008DF81630009205AB0322012140
:10C21000034806F0AAF8DBE7B8340020A02200208B
:10C22000A4220020043808B50D284AD8DFE800F021
:10C230000B494917494907494949212E3841BDE869
:10C240000840FFF7A1BF1F4B13211888FFF75EFFBF
:10C2500030F0080335D0BDE80840FBF713BF194B99
:10C260001A884FF6FF739A422BD1174801F01BF83A
:10C27000EEE7144B1A884FF6FF739A4221D0002143
:10C280006FF00400BDE80840FFF792BF0D4B1A881D
:10C290004FF6FF739A4214D06FF004010020F1E7CB
:10C2A000084B1A884FF6FF739A420AD000210520E6
:10C2B000E8E7044B1A884FF6FF739A4201D0052134
:10C2C000ECE708BDA0220020083000200388212BC5
:10C2D00013B5044639D005D8102B0CD0112B25D01E
:10C2E00002B010BD3B2B01D0562BF9D1A0881321F1
:10C2F000FFF70CFF15E0194B19481A49C01AC0087E
:10C30000000440F00300FBF7C7FB0720FFF7EAFD3E
:10C3100008B1FBF7B7FE144BA1881448198002F04E
:10C32000E1FD0028DCD0FBF7ADFED9E70B4B0C4854
:10C330000F49C01AC008000440F00300FBF7ACFB33
:10C34000094B4FF6FF721A80CAE7002301A98088C3
:10C35000ADF80430FFF7E2FEE3E700BF342D030041
:10C360005C2D030068370300A0220020BC340020AD
:10C37000723703007FB508220346019201A94FF6E8
:10C38000FF7202A803F078FC08B1FBF77BFE01996D
:10C3900002A803F049FC08B1FBF774FE07B05DF892
:10C3A00004FB000000B5B3B0082861D8DFE800F056
:10C3B00058056017233844637B00444B4448454983
:10C3C000C01AC008000440F00300FBF765FB05201D
:10C3D000FFF788FD00284BD0FBF754FE48E03B4BAD
:10C3E0003B483D49C01AC008000440F00300FBF779
:10C3F00053FB0220ECE7354B35483849C01AC008DA
:10C40000000440F00300FBF747FB354935480022A4
:10C410004A6200F066FF08B1FBF734FE0420D7E75C
:10C420002A4B2B483049C01AC008000440F00300D2
:10C43000FBF732FB0320CBE7244B25482B49C01ADE
:10C44000C008000440F00300FBF726FB0320FFF7C1
:10C4500049FD08B1FBF716FE224800F024FFB9E7BA
:10C460000020FFF73FFD08B1FBF70CFEFFF78CFE45
:10C4700033B05DF804FB0823CDE9023312AA03AB05
:10C4800002A904A803F0B8FB08B1FBF7FBFD0220EA
:10C49000FFF770FF039B0093029A124812AB04A9A6
:10C4A00000F0F0FE96E712A9002003F09FFC05289B
:10C4B000DED008B1FBF7E6FD0620FFF75BFF0DF1CC
:10C4C0005901084800F0CEFE84E700BF342D030078
:10C4D0005C2D03007F37030095370300A737030067
:10C4E000C834002008300020B9370300DA370300D1
:10C4F0007FB5082301934FF6FF72012301A902A81B
:10C5000003F0BAFB08B1FBF7BDFD0B4B0B48019ADA
:10C510000B49C01AC008000440F003000823013290
:10C52000FBF7C7FA019902A803F05CFB08B1FBF71F
:10C53000A9FD07B05DF804FB342D03005C2D03005A
:10C54000FB37030008B5FFF7D3FF0548032100F0D0
:10C5500042FD18B1BDE80840FBF794BD08BD00BF1F
:10C560000830002010B5044604F0DEF8204603F041
:10C57000BDFE2378082B05D00C2B17D1BDE8104049
:10C58000FFF7E0BF237CDB0710D5237A072B0DD103
:10C59000074B08480849C01AC008000440F00300CF
:10C5A000FBF77AFABDE81040FFF7A2BF10BD00BF4D
:10C5B000342D03005C2D030028380300FBF762BD17
:10C5C000FBF760BDFBF75EBD80B54FF48041AEB0B8
:10C5D0000020FBF7ABF808B1FBF754FDFAF7DCFFDE
:10C5E000FBF7D8FE08B1FBF74DFDB64AB64801216E
:10C5F000FBF702FF08B1FBF745FDB4490320FFF745
:10C600007DFC08B1FBF73EFD03A90020FFF75CFDB0
:10C6100008B1FBF737FD9DF80C50FDF7DFFF08B1BF
:10C62000FBF730FD05F0C0FF08B1FBF72BFD002341
:10C6300003A90120039306F08DF808B1FBF722FD52
:10C6400003A806F039F908B1FBF71CFDA04A0A213E
:10C650000820FBF75DFD08B1FBF714FD11239D4891
:10C660008DF8043006F0E8FA01AE82B299493046FE
:10C67000FFF752FD08B1FBF705FD40F2C230FFF7AE
:10C6800047FD08B1FBF7FEFC0822002103A806F0D5
:10C69000A0FA914C914B03A8CDE90343FFF73AFD73
:10C6A00008B1FBF7EFFC8E48002102F013FB08B144
:10C6B000FBF7E8FCAC22002103A806F08AFA02236B
:10C6C0008DF80C3040F20153ADF80E30854B0893D5
:10C6D0000124854B85480C9303A93C22ADF81C40EE
:10C6E00006F04EFA00232821CDE9233340F6B83373
:10C6F000CDE9251340F20113A020ADF8883044F2B3
:10C700005063CDE927037A4B2C937A487A4B8DF806
:10C71000854003A9ADF886402D9300F0E5FB08B1F4
:10C72000FBF7B0FC7348012100F0DBFB734B74484E
:10C73000039303A902F0C4FB08B1FBF7A3FC41F685
:10C7400015130224ADF8063040226E4B02930021EF
:10C7500003A88DF8044006F03CFA03A86A4901F0EA
:10C7600023F903A811968DF8484005F009F808B19F
:10C77000FBF788FC1022002103A806F02AFA002308
:10C780000393012205936148614B8DF8102003A9A2
:10C79000069304F0EBFE08B1FBF774FC5D4C182225
:10C7A0000021204606F015FA40F2011363804FF491
:10C7B000817363810123022640F202274FF00308B0
:10C7C000238240F20313638248220021A4F80080F0
:10C7D000A780A671A4F80880A781A673A782A67572
:10C7E00003A806F0F6F94C4B03934C4B04938822B4
:10C7F0004FF48073ADF81430ADF830200023484A70
:10C800008DF81C3008938DF824300A930B928DF824
:10C810004230444A119344488DF816804FF0023359
:10C8200003A906948DF838600F928DF8406012933A
:10C83000ADF84C7005F080FB08B1FBF723FC3B49D9
:10C840003B4851226423C1E9002301238B600B7311
:10C85000FDF76EFF1C22002103A806F0BAF90023A1
:10C860004FF4A032CDE903324FF4F0220592ADF837
:10C870001A3003228DF81C30089303A82D4B8DF835
:10C880001820099300F086FE08B1FBF7FBFB03F0CC
:10C89000F7F808B1FBF7F6FB0522002103A806F024
:10C8A00098F9039B03F07C42234B134303939DF8B9
:10C8B000103023F0030343F0030303A88DF8103076
:10C8C0003CE000BF45C10200A438030025C20200BD
:10C8D000402F00205C38030006000C0014002C01DF
:10C8E000883400209C22002034240020C8340020FA
:10C8F000A5C3020008300020C1C50200C5C5020062
:10C90000BC340020EEEE0100673803003C34002008
:10C9100064020202F02F002021C1020041C1020086
:10C920004324002001010003A422002050340020F1
:10C9300060340020BDC502003107100303F03AF94E
:10C9400008B1FBF79FFB184803F01CF908B1FBF78F
:10C9500099FB164B164C1749E41AE408240444F0DA
:10C9600003042046FBF798F8134800224FF40041D7
:10C97000FBF74DFD08B1FBF785FB022D11D10F49E7
:10C980002046FBF789F803F047FA08B1FBF77AFB7A
:10C99000FBF748FCFAF724FF0028F9D1FDF734FE35
:10C9A000F6E7FFF7CFFDF3E765C50200342D03007E
:10C9B0005C2D03007B3803006834002096380300A8
:10C9C0006DDF704779DF70477DDF704764DF704748
:10C9D0002DE9F04F85B000250E9CBDF83CB0B4F8B1
:10C9E00000A00191074690461E46A9463A884A454E
:10C9F0000DDC45B12388013BA3EB0A039BB2FF2B5F
:10CA00003AD806F80A30002005B0BDE8F08F7A6801
:10CA100052F82900039000220DF10B0103A8FFF743
:10CA2000D5FF0028F0D19DF80B20424521D1228866
:10CA3000002D14BF0020022002EB080101445945DB
:10CA40001ADC3DB9013292B2019B2280B354228894
:10CA50000132228022880DF10B01324403A8FFF736
:10CA6000B5FF0028D0D121889DF80B200A442280F0
:10CA7000012509F10109B9E70C20C5E72DE9F341CA
:10CA8000089FBDF824801546CDE9007802220446AF
:10CA90001E46FFF79DFF50B9334610222946204617
:10CAA000CDE9087802B0BDE8F041FFF791BF02B0D0
:10CAB000BDE8F0812DE9F04F00231788138090F82E
:10CAC0002D3085B006460D46144653B3082F01D8C5
:10CAD0000C2027E102A8FFF773FF002840F0228115
